{
  "abi": [
    {
      "inputs": [
        {
          "internalType": "string",
          "name": "_companyName",
          "type": "string"
        }
      ],
      "name": "createNewServiceProvider",
      "outputs": [],
      "stateMutability": "nonpayable",
      "type": "function"
    },
    {
      "inputs": [],
      "name": "getServiceProviders",
      "outputs": [
        {
          "internalType": "string[]",
          "name": "",
          "type": "string[]"
        }
      ],
      "stateMutability": "view",
      "type": "function"
    }
  ],
  "devdoc": {
    "kind": "dev",
    "methods": {},
    "version": 1
  },
  "evm": {
    "assembly": "    /* \"ServiceManager.sol\":284:1361  contract ServiceManager {\r... */\n  mstore(0x40, 0x80)\n  callvalue\n  dup1\n  iszero\n  tag_1\n  jumpi\n  0x00\n  dup1\n  revert\ntag_1:\n  pop\n  dataSize(sub_0)\n  dup1\n  dataOffset(sub_0)\n  0x00\n  codecopy\n  0x00\n  return\nstop\n\nsub_0: assembly {\n        /* \"ServiceManager.sol\":284:1361  contract ServiceManager {\r... */\n      mstore(0x40, 0x80)\n      callvalue\n      dup1\n      iszero\n      tag_1\n      jumpi\n      0x00\n      dup1\n      revert\n    tag_1:\n      pop\n      jumpi(tag_2, lt(calldatasize, 0x04))\n      shr(0xe0, calldataload(0x00))\n      dup1\n      0x41caa43e\n      eq\n      tag_3\n      jumpi\n      dup1\n      0x4d559dc8\n      eq\n      tag_4\n      jumpi\n    tag_2:\n      0x00\n      dup1\n      revert\n        /* \"ServiceManager.sol\":958:1358  function getServiceProviders() external view returns (string[] memory) {\r... */\n    tag_3:\n      tag_5\n      tag_6\n      jump\t// in\n    tag_5:\n      mload(0x40)\n      tag_7\n      swap2\n      swap1\n      tag_8\n      jump\t// in\n    tag_7:\n      mload(0x40)\n      dup1\n      swap2\n      sub\n      swap1\n      return\n        /* \"ServiceManager.sol\":544:950  function createNewServiceProvider(string memory _companyName) external {\r... */\n    tag_4:\n      tag_9\n      tag_10\n      calldatasize\n      0x04\n      tag_11\n      jump\t// in\n    tag_10:\n      tag_12\n      jump\t// in\n    tag_9:\n      stop\n        /* \"ServiceManager.sol\":958:1358  function getServiceProviders() external view returns (string[] memory) {\r... */\n    tag_6:\n        /* \"ServiceManager.sol\":1012:1027  string[] memory */\n      0x60\n        /* \"ServiceManager.sol\":1284:1300  serviceProviders */\n      0x00\n        /* \"ServiceManager.sol\":1277:1300  return serviceProviders */\n      dup1\n      sload\n      dup1\n      0x20\n      mul\n      0x20\n      add\n      mload(0x40)\n      swap1\n      dup2\n      add\n      0x40\n      mstore\n      dup1\n      swap3\n      swap2\n      swap1\n      dup2\n      dup2\n      mstore\n      0x20\n      add\n      0x00\n      swap1\n    tag_14:\n      dup3\n      dup3\n      lt\n      iszero\n      tag_15\n      jumpi\n      dup4\n      dup3\n      swap1\n      0x00\n      mstore\n      keccak256(0x00, 0x20)\n      add\n      dup1\n      sload\n      tag_17\n      swap1\n      tag_18\n      jump\t// in\n    tag_17:\n      dup1\n      0x1f\n      add\n      0x20\n      dup1\n      swap2\n      div\n      mul\n      0x20\n      add\n      mload(0x40)\n      swap1\n      dup2\n      add\n      0x40\n      mstore\n      dup1\n      swap3\n      swap2\n      swap1\n      dup2\n      dup2\n      mstore\n      0x20\n      add\n      dup3\n      dup1\n      sload\n      tag_19\n      swap1\n      tag_18\n      jump\t// in\n    tag_19:\n      dup1\n      iszero\n      tag_20\n      jumpi\n      dup1\n      0x1f\n      lt\n      tag_21\n      jumpi\n      0x0100\n      dup1\n      dup4\n      sload\n      div\n      mul\n      dup4\n      mstore\n      swap2\n      0x20\n      add\n      swap2\n      jump(tag_20)\n    tag_21:\n      dup3\n      add\n      swap2\n      swap1\n      0x00\n      mstore\n      keccak256(0x00, 0x20)\n      swap1\n    tag_22:\n      dup2\n      sload\n      dup2\n      mstore\n      swap1\n      0x01\n      add\n      swap1\n      0x20\n      add\n      dup1\n      dup4\n      gt\n      tag_22\n      jumpi\n      dup3\n      swap1\n      sub\n      0x1f\n      and\n      dup3\n      add\n      swap2\n    tag_20:\n      pop\n      pop\n      pop\n      pop\n      pop\n      dup2\n      mstore\n      0x20\n      add\n      swap1\n      0x01\n      add\n      swap1\n      jump(tag_14)\n    tag_15:\n      pop\n      pop\n      pop\n      pop\n      swap1\n      pop\n        /* \"ServiceManager.sol\":958:1358  function getServiceProviders() external view returns (string[] memory) {\r... */\n      swap1\n      jump\t// out\n        /* \"ServiceManager.sol\":544:950  function createNewServiceProvider(string memory _companyName) external {\r... */\n    tag_12:\n        /* \"ServiceManager.sol\":813:829  serviceProviders */\n      0x00\n        /* \"ServiceManager.sol\":813:848  serviceProviders.push(_companyName) */\n      dup1\n      sload\n      0x01\n      dup2\n      add\n      dup3\n      sstore\n      swap1\n      dup1\n      mstore\n      dup2\n      mload\n      tag_25\n      swap2\n      0x290decd9548b62a8d60345a988386fc84ba6bc95484008f6362f93160ef3e563\n      add\n      swap1\n      0x20\n      dup5\n      add\n      swap1\n      tag_26\n      jump\t// in\n    tag_25:\n      pop\n        /* \"ServiceManager.sol\":544:950  function createNewServiceProvider(string memory _companyName) external {\r... */\n      pop\n      jump\t// out\n    tag_26:\n      dup3\n      dup1\n      sload\n      tag_27\n      swap1\n      tag_18\n      jump\t// in\n    tag_27:\n      swap1\n      0x00\n      mstore\n      keccak256(0x00, 0x20)\n      swap1\n      0x1f\n      add\n      0x20\n      swap1\n      div\n      dup2\n      add\n      swap3\n      dup3\n      tag_29\n      jumpi\n      0x00\n      dup6\n      sstore\n      jump(tag_32)\n    tag_29:\n      dup3\n      0x1f\n      lt\n      tag_30\n      jumpi\n      dup1\n      mload\n      not(0xff)\n      and\n      dup4\n      dup1\n      add\n      or\n      dup6\n      sstore\n      jump(tag_32)\n    tag_30:\n      dup3\n      dup1\n      add\n      0x01\n      add\n      dup6\n      sstore\n      dup3\n      iszero\n      tag_32\n      jumpi\n      swap2\n      dup3\n      add\n    tag_31:\n      dup3\n      dup2\n      gt\n      iszero\n      tag_32\n      jumpi\n      dup3\n      mload\n      dup3\n      sstore\n      swap2\n      0x20\n      add\n      swap2\n      swap1\n      0x01\n      add\n      swap1\n      jump(tag_31)\n    tag_32:\n      pop\n      tag_33\n      swap3\n      swap2\n      pop\n      tag_34\n      jump\t// in\n    tag_33:\n      pop\n      swap1\n      jump\t// out\n    tag_34:\n    tag_35:\n      dup1\n      dup3\n      gt\n      iszero\n      tag_33\n      jumpi\n      0x00\n      dup2\n      sstore\n      0x01\n      add\n      jump(tag_35)\n        /* \"#utility.yul\":14:981   */\n    tag_11:\n        /* \"#utility.yul\":83:89   */\n      0x00\n        /* \"#utility.yul\":136:138   */\n      0x20\n        /* \"#utility.yul\":124:133   */\n      dup3\n        /* \"#utility.yul\":115:122   */\n      dup5\n        /* \"#utility.yul\":111:134   */\n      sub\n        /* \"#utility.yul\":107:139   */\n      slt\n        /* \"#utility.yul\":104:106   */\n      iszero\n      tag_39\n      jumpi\n        /* \"#utility.yul\":157:163   */\n      dup1\n        /* \"#utility.yul\":149:155   */\n      dup2\n        /* \"#utility.yul\":142:164   */\n      revert\n        /* \"#utility.yul\":104:106   */\n    tag_39:\n        /* \"#utility.yul\":202:211   */\n      dup2\n        /* \"#utility.yul\":189:212   */\n      calldataload\n        /* \"#utility.yul\":231:249   */\n      0xffffffffffffffff\n        /* \"#utility.yul\":272:274   */\n      dup1\n        /* \"#utility.yul\":264:270   */\n      dup3\n        /* \"#utility.yul\":261:275   */\n      gt\n        /* \"#utility.yul\":258:260   */\n      iszero\n      tag_40\n      jumpi\n        /* \"#utility.yul\":293:299   */\n      dup3\n        /* \"#utility.yul\":285:291   */\n      dup4\n        /* \"#utility.yul\":278:300   */\n      revert\n        /* \"#utility.yul\":258:260   */\n    tag_40:\n        /* \"#utility.yul\":336:342   */\n      dup2\n        /* \"#utility.yul\":325:334   */\n      dup5\n        /* \"#utility.yul\":321:343   */\n      add\n        /* \"#utility.yul\":311:343   */\n      swap2\n      pop\n        /* \"#utility.yul\":381:388   */\n      dup5\n        /* \"#utility.yul\":374:378   */\n      0x1f\n        /* \"#utility.yul\":370:372   */\n      dup4\n        /* \"#utility.yul\":366:379   */\n      add\n        /* \"#utility.yul\":362:389   */\n      slt\n        /* \"#utility.yul\":352:354   */\n      tag_41\n      jumpi\n        /* \"#utility.yul\":408:414   */\n      dup3\n        /* \"#utility.yul\":400:406   */\n      dup4\n        /* \"#utility.yul\":393:415   */\n      revert\n        /* \"#utility.yul\":352:354   */\n    tag_41:\n        /* \"#utility.yul\":449:451   */\n      dup2\n        /* \"#utility.yul\":436:452   */\n      calldataload\n        /* \"#utility.yul\":471:473   */\n      dup2\n        /* \"#utility.yul\":467:469   */\n      dup2\n        /* \"#utility.yul\":464:474   */\n      gt\n        /* \"#utility.yul\":461:463   */\n      iszero\n      tag_43\n      jumpi\n        /* \"#utility.yul\":477:495   */\n      tag_43\n      tag_44\n      jump\t// in\n    tag_43:\n        /* \"#utility.yul\":552:554   */\n      0x40\n        /* \"#utility.yul\":546:555   */\n      mload\n        /* \"#utility.yul\":520:522   */\n      0x1f\n        /* \"#utility.yul\":606:619   */\n      dup3\n      add\n      not(0x1f)\n        /* \"#utility.yul\":602:624   */\n      swap1\n      dup2\n      and\n        /* \"#utility.yul\":626:628   */\n      0x3f\n        /* \"#utility.yul\":598:629   */\n      add\n        /* \"#utility.yul\":594:634   */\n      and\n        /* \"#utility.yul\":582:635   */\n      dup2\n      add\n      swap1\n        /* \"#utility.yul\":650:668   */\n      dup4\n      dup3\n      gt\n        /* \"#utility.yul\":670:692   */\n      dup2\n      dup4\n      lt\n        /* \"#utility.yul\":647:693   */\n      or\n        /* \"#utility.yul\":644:646   */\n      iszero\n      tag_46\n      jumpi\n        /* \"#utility.yul\":696:714   */\n      tag_46\n      tag_44\n      jump\t// in\n    tag_46:\n        /* \"#utility.yul\":736:746   */\n      dup2\n        /* \"#utility.yul\":732:734   */\n      0x40\n        /* \"#utility.yul\":725:747   */\n      mstore\n        /* \"#utility.yul\":771:773   */\n      dup3\n        /* \"#utility.yul\":763:769   */\n      dup2\n        /* \"#utility.yul\":756:774   */\n      mstore\n        /* \"#utility.yul\":811:818   */\n      dup8\n        /* \"#utility.yul\":806:808   */\n      0x20\n        /* \"#utility.yul\":801:803   */\n      dup5\n        /* \"#utility.yul\":797:799   */\n      dup8\n        /* \"#utility.yul\":793:804   */\n      add\n        /* \"#utility.yul\":789:809   */\n      add\n        /* \"#utility.yul\":786:819   */\n      gt\n        /* \"#utility.yul\":783:785   */\n      iszero\n      tag_47\n      jumpi\n        /* \"#utility.yul\":837:843   */\n      dup6\n        /* \"#utility.yul\":829:835   */\n      dup7\n        /* \"#utility.yul\":822:844   */\n      revert\n        /* \"#utility.yul\":783:785   */\n    tag_47:\n        /* \"#utility.yul\":898:900   */\n      dup3\n        /* \"#utility.yul\":893:895   */\n      0x20\n        /* \"#utility.yul\":889:891   */\n      dup7\n        /* \"#utility.yul\":885:896   */\n      add\n        /* \"#utility.yul\":880:882   */\n      0x20\n        /* \"#utility.yul\":872:878   */\n      dup4\n        /* \"#utility.yul\":868:883   */\n      add\n        /* \"#utility.yul\":855:901   */\n      calldatacopy\n        /* \"#utility.yul\":921:936   */\n      swap2\n      dup3\n      add\n        /* \"#utility.yul\":938:940   */\n      0x20\n        /* \"#utility.yul\":917:941   */\n      add\n        /* \"#utility.yul\":910:950   */\n      swap5\n      swap1\n      swap5\n      mstore\n        /* \"#utility.yul\":925:931   */\n      swap6\n        /* \"#utility.yul\":94:981   */\n      swap5\n      pop\n      pop\n      pop\n      pop\n      pop\n      jump\t// out\n        /* \"#utility.yul\":986:2236   */\n    tag_8:\n        /* \"#utility.yul\":1148:1152   */\n      0x00\n        /* \"#utility.yul\":1177:1179   */\n      0x20\n        /* \"#utility.yul\":1217:1219   */\n      dup1\n        /* \"#utility.yul\":1206:1215   */\n      dup4\n        /* \"#utility.yul\":1202:1220   */\n      add\n        /* \"#utility.yul\":1247:1249   */\n      dup2\n        /* \"#utility.yul\":1236:1245   */\n      dup5\n        /* \"#utility.yul\":1229:1250   */\n      mstore\n        /* \"#utility.yul\":1270:1276   */\n      dup1\n        /* \"#utility.yul\":1305:1311   */\n      dup6\n        /* \"#utility.yul\":1299:1312   */\n      mload\n        /* \"#utility.yul\":1336:1342   */\n      dup1\n        /* \"#utility.yul\":1328:1334   */\n      dup4\n        /* \"#utility.yul\":1321:1343   */\n      mstore\n        /* \"#utility.yul\":1374:1376   */\n      0x40\n        /* \"#utility.yul\":1363:1372   */\n      dup7\n        /* \"#utility.yul\":1359:1377   */\n      add\n        /* \"#utility.yul\":1352:1377   */\n      swap2\n      pop\n        /* \"#utility.yul\":1436:1438   */\n      0x40\n        /* \"#utility.yul\":1426:1432   */\n      dup2\n        /* \"#utility.yul\":1423:1424   */\n      0x05\n        /* \"#utility.yul\":1419:1433   */\n      shl\n        /* \"#utility.yul\":1408:1417   */\n      dup8\n        /* \"#utility.yul\":1404:1434   */\n      add\n        /* \"#utility.yul\":1400:1439   */\n      add\n        /* \"#utility.yul\":1386:1439   */\n      swap3\n      pop\n        /* \"#utility.yul\":1474:1476   */\n      dup4\n        /* \"#utility.yul\":1466:1472   */\n      dup8\n        /* \"#utility.yul\":1462:1477   */\n      add\n        /* \"#utility.yul\":1495:1499   */\n      dup6\n        /* \"#utility.yul\":1508:2207   */\n    tag_49:\n        /* \"#utility.yul\":1522:1528   */\n      dup3\n        /* \"#utility.yul\":1519:1520   */\n      dup2\n        /* \"#utility.yul\":1516:1529   */\n      lt\n        /* \"#utility.yul\":1508:2207   */\n      iszero\n      tag_51\n      jumpi\n        /* \"#utility.yul\":1587:1609   */\n      dup8\n      dup6\n      sub\n      not(0x3f)\n        /* \"#utility.yul\":1583:1619   */\n      add\n        /* \"#utility.yul\":1571:1620   */\n      dup5\n      mstore\n        /* \"#utility.yul\":1643:1656   */\n      dup2\n      mload\n        /* \"#utility.yul\":1685:1694   */\n      dup1\n      mload\n        /* \"#utility.yul\":1707:1731   */\n      dup1\n      dup8\n      mstore\n        /* \"#utility.yul\":1755:1759   */\n      dup9\n        /* \"#utility.yul\":1772:1929   */\n    tag_52:\n        /* \"#utility.yul\":1788:1796   */\n      dup2\n        /* \"#utility.yul\":1783:1786   */\n      dup2\n        /* \"#utility.yul\":1780:1797   */\n      lt\n        /* \"#utility.yul\":1772:1929   */\n      iszero\n      tag_54\n      jumpi\n        /* \"#utility.yul\":1896:1908   */\n      dup3\n      dup2\n      add\n        /* \"#utility.yul\":1892:1913   */\n      dup10\n      add\n        /* \"#utility.yul\":1886:1914   */\n      mload\n        /* \"#utility.yul\":1863:1879   */\n      dup9\n      dup3\n      add\n        /* \"#utility.yul\":1859:1884   */\n      dup11\n      add\n        /* \"#utility.yul\":1852:1915   */\n      mstore\n        /* \"#utility.yul\":1807:1819   */\n      dup9\n      add\n        /* \"#utility.yul\":1772:1929   */\n      jump(tag_52)\n    tag_54:\n        /* \"#utility.yul\":1953:1961   */\n      dup2\n        /* \"#utility.yul\":1948:1951   */\n      dup2\n        /* \"#utility.yul\":1945:1962   */\n      gt\n        /* \"#utility.yul\":1942:1944   */\n      iszero\n      tag_55\n      jumpi\n        /* \"#utility.yul\":2032:2036   */\n      dup10\n        /* \"#utility.yul\":2027:2029   */\n      dup10\n        /* \"#utility.yul\":2016:2024   */\n      dup4\n        /* \"#utility.yul\":2008:2014   */\n      dup11\n        /* \"#utility.yul\":2004:2025   */\n      add\n        /* \"#utility.yul\":2000:2030   */\n      add\n        /* \"#utility.yul\":1993:2037   */\n      mstore\n        /* \"#utility.yul\":1942:1944   */\n    tag_55:\n      pop\n        /* \"#utility.yul\":2117:2119   */\n      0x1f\n        /* \"#utility.yul\":2094:2111   */\n      add\n      not(0x1f)\n        /* \"#utility.yul\":2090:2121   */\n      and\n        /* \"#utility.yul\":2078:2122   */\n      swap6\n      swap1\n      swap6\n      add\n        /* \"#utility.yul\":2074:2127   */\n      dup7\n      add\n      swap5\n      pop\n        /* \"#utility.yul\":2185:2197   */\n      swap3\n      dup6\n      add\n      swap3\n        /* \"#utility.yul\":2150:2165   */\n      swap1\n      dup6\n      add\n      swap1\n        /* \"#utility.yul\":1544:1545   */\n      0x01\n        /* \"#utility.yul\":1537:1546   */\n      add\n        /* \"#utility.yul\":1508:2207   */\n      jump(tag_49)\n    tag_51:\n      pop\n        /* \"#utility.yul\":2224:2230   */\n      swap3\n      swap8\n        /* \"#utility.yul\":1157:2236   */\n      swap7\n      pop\n      pop\n      pop\n      pop\n      pop\n      pop\n      pop\n      jump\t// out\n        /* \"#utility.yul\":2241:2621   */\n    tag_18:\n        /* \"#utility.yul\":2320:2321   */\n      0x01\n        /* \"#utility.yul\":2316:2328   */\n      dup2\n      dup2\n      shr\n      swap1\n        /* \"#utility.yul\":2363:2375   */\n      dup3\n      and\n      dup1\n        /* \"#utility.yul\":2384:2386   */\n      tag_57\n      jumpi\n        /* \"#utility.yul\":2438:2442   */\n      0x7f\n        /* \"#utility.yul\":2430:2436   */\n      dup3\n        /* \"#utility.yul\":2426:2443   */\n      and\n        /* \"#utility.yul\":2416:2443   */\n      swap2\n      pop\n        /* \"#utility.yul\":2384:2386   */\n    tag_57:\n        /* \"#utility.yul\":2491:2493   */\n      0x20\n        /* \"#utility.yul\":2483:2489   */\n      dup3\n        /* \"#utility.yul\":2480:2494   */\n      lt\n        /* \"#utility.yul\":2460:2478   */\n      dup2\n        /* \"#utility.yul\":2457:2495   */\n      eq\n        /* \"#utility.yul\":2454:2456   */\n      iszero\n      tag_58\n      jumpi\n        /* \"#utility.yul\":2537:2547   */\n      0x4e487b71\n        /* \"#utility.yul\":2532:2535   */\n      0xe0\n        /* \"#utility.yul\":2528:2548   */\n      shl\n        /* \"#utility.yul\":2525:2526   */\n      0x00\n        /* \"#utility.yul\":2518:2549   */\n      mstore\n        /* \"#utility.yul\":2572:2576   */\n      0x22\n        /* \"#utility.yul\":2569:2570   */\n      0x04\n        /* \"#utility.yul\":2562:2577   */\n      mstore\n        /* \"#utility.yul\":2600:2604   */\n      0x24\n        /* \"#utility.yul\":2597:2598   */\n      0x00\n        /* \"#utility.yul\":2590:2605   */\n      revert\n        /* \"#utility.yul\":2454:2456   */\n    tag_58:\n      pop\n        /* \"#utility.yul\":2296:2621   */\n      swap2\n      swap1\n      pop\n      jump\t// out\n        /* \"#utility.yul\":2626:2753   */\n    tag_44:\n        /* \"#utility.yul\":2687:2697   */\n      0x4e487b71\n        /* \"#utility.yul\":2682:2685   */\n      0xe0\n        /* \"#utility.yul\":2678:2698   */\n      shl\n        /* \"#utility.yul\":2675:2676   */\n      0x00\n        /* \"#utility.yul\":2668:2699   */\n      mstore\n        /* \"#utility.yul\":2718:2722   */\n      0x41\n        /* \"#utility.yul\":2715:2716   */\n      0x04\n        /* \"#utility.yul\":2708:2723   */\n      mstore\n        /* \"#utility.yul\":2742:2746   */\n      0x24\n        /* \"#utility.yul\":2739:2740   */\n      0x00\n        /* \"#utility.yul\":2732:2747   */\n      revert\n\n    auxdata: 0xa2646970667358221220b4070bb62e5a63bd297a5d044b028cf0bd9a354823aed04e8d7fd81dc6f4bf4e64736f6c63430008040033\n}\n",
    "bytecode": {
      "linkReferences": {},
      "object": "608060405234801561001057600080fd5b506103ed806100206000396000f3fe608060405234801561001057600080fd5b50600436106100365760003560e01c806341caa43e1461003b5780634d559dc814610059575b600080fd5b61004361006e565b60405161005091906102ce565b60405180910390f35b61006c610067366004610224565b610147565b005b60606000805480602002602001604051908101604052809291908181526020016000905b8282101561013e5783829060005260206000200180546100b190610366565b80601f01602080910402602001604051908101604052809291908181526020018280546100dd90610366565b801561012a5780601f106100ff5761010080835404028352916020019161012a565b820191906000526020600020905b81548152906001019060200180831161010d57829003601f168201915b505050505081526020019060010190610092565b50505050905090565b600080546001810182559080528151610187917f290decd9548b62a8d60345a988386fc84ba6bc95484008f6362f93160ef3e5630190602084019061018b565b5050565b82805461019790610366565b90600052602060002090601f0160209004810192826101b957600085556101ff565b82601f106101d257805160ff19168380011785556101ff565b828001600101855582156101ff579182015b828111156101ff5782518255916020019190600101906101e4565b5061020b92915061020f565b5090565b5b8082111561020b5760008155600101610210565b600060208284031215610235578081fd5b813567ffffffffffffffff8082111561024c578283fd5b818401915084601f83011261025f578283fd5b813581811115610271576102716103a1565b604051601f8201601f19908116603f01168101908382118183101715610299576102996103a1565b816040528281528760208487010111156102b1578586fd5b826020860160208301379182016020019490945295945050505050565b6000602080830181845280855180835260408601915060408160051b8701019250838701855b8281101561035957878503603f1901845281518051808752885b81811015610329578281018901518882018a0152880161030e565b81811115610339578989838a0101525b50601f01601f1916959095018601945092850192908501906001016102f4565b5092979650505050505050565b600181811c9082168061037a57607f821691505b6020821081141561039b57634e487b7160e01b600052602260045260246000fd5b50919050565b634e487b7160e01b600052604160045260246000fdfea2646970667358221220b4070bb62e5a63bd297a5d044b028cf0bd9a354823aed04e8d7fd81dc6f4bf4e64736f6c63430008040033",
      "opcodes": "PUSH1 0x80 PUSH1 0x40 MSTORE CALLVALUE DUP1 ISZERO PUSH2 0x10 JUMPI PUSH1 0x0 DUP1 REVERT JUMPDEST POP PUSH2 0x3ED DUP1 PUSH2 0x20 PUSH1 0x0 CODECOPY PUSH1 0x0 RETURN INVALID PUSH1 0x80 PUSH1 0x40 MSTORE CALLVALUE DUP1 ISZERO PUSH2 0x10 JUMPI PUSH1 0x0 DUP1 REVERT JUMPDEST POP PUSH1 0x4 CALLDATASIZE LT PUSH2 0x36 JUMPI PUSH1 0x0 CALLDATALOAD PUSH1 0xE0 SHR DUP1 PUSH4 0x41CAA43E EQ PUSH2 0x3B JUMPI DUP1 PUSH4 0x4D559DC8 EQ PUSH2 0x59 JUMPI JUMPDEST PUSH1 0x0 DUP1 REVERT JUMPDEST PUSH2 0x43 PUSH2 0x6E JUMP JUMPDEST PUSH1 0x40 MLOAD PUSH2 0x50 SWAP2 SWAP1 PUSH2 0x2CE JUMP JUMPDEST PUSH1 0x40 MLOAD DUP1 SWAP2 SUB SWAP1 RETURN JUMPDEST PUSH2 0x6C PUSH2 0x67 CALLDATASIZE PUSH1 0x4 PUSH2 0x224 JUMP JUMPDEST PUSH2 0x147 JUMP JUMPDEST STOP JUMPDEST PUSH1 0x60 PUSH1 0x0 DUP1 SLOAD DUP1 PUSH1 0x20 MUL PUSH1 0x20 ADD PUSH1 0x40 MLOAD SWAP1 DUP2 ADD PUSH1 0x40 MSTORE DUP1 SWAP3 SWAP2 SWAP1 DUP2 DUP2 MSTORE PUSH1 0x20 ADD PUSH1 0x0 SWAP1 JUMPDEST DUP3 DUP3 LT ISZERO PUSH2 0x13E JUMPI DUP4 DUP3 SWAP1 PUSH1 0x0 MSTORE PUSH1 0x20 PUSH1 0x0 KECCAK256 ADD DUP1 SLOAD PUSH2 0xB1 SWAP1 PUSH2 0x366 JUMP JUMPDEST DUP1 PUSH1 0x1F ADD PUSH1 0x20 DUP1 SWAP2 DIV MUL PUSH1 0x20 ADD PUSH1 0x40 MLOAD SWAP1 DUP2 ADD PUSH1 0x40 MSTORE DUP1 SWAP3 SWAP2 SWAP1 DUP2 DUP2 MSTORE PUSH1 0x20 ADD DUP3 DUP1 SLOAD PUSH2 0xDD SWAP1 PUSH2 0x366 JUMP JUMPDEST DUP1 ISZERO PUSH2 0x12A JUMPI DUP1 PUSH1 0x1F LT PUSH2 0xFF JUMPI PUSH2 0x100 DUP1 DUP4 SLOAD DIV MUL DUP4 MSTORE SWAP2 PUSH1 0x20 ADD SWAP2 PUSH2 0x12A JUMP JUMPDEST DUP3 ADD SWAP2 SWAP1 PUSH1 0x0 MSTORE PUSH1 0x20 PUSH1 0x0 KECCAK256 SWAP1 JUMPDEST DUP2 SLOAD DUP2 MSTORE SWAP1 PUSH1 0x1 ADD SWAP1 PUSH1 0x20 ADD DUP1 DUP4 GT PUSH2 0x10D JUMPI DUP3 SWAP1 SUB PUSH1 0x1F AND DUP3 ADD SWAP2 JUMPDEST POP POP POP POP POP DUP2 MSTORE PUSH1 0x20 ADD SWAP1 PUSH1 0x1 ADD SWAP1 PUSH2 0x92 JUMP JUMPDEST POP POP POP POP SWAP1 POP SWAP1 JUMP JUMPDEST PUSH1 0x0 DUP1 SLOAD PUSH1 0x1 DUP2 ADD DUP3 SSTORE SWAP1 DUP1 MSTORE DUP2 MLOAD PUSH2 0x187 SWAP2 PUSH32 0x290DECD9548B62A8D60345A988386FC84BA6BC95484008F6362F93160EF3E563 ADD SWAP1 PUSH1 0x20 DUP5 ADD SWAP1 PUSH2 0x18B JUMP JUMPDEST POP POP JUMP JUMPDEST DUP3 DUP1 SLOAD PUSH2 0x197 SWAP1 PUSH2 0x366 JUMP JUMPDEST SWAP1 PUSH1 0x0 MSTORE PUSH1 0x20 PUSH1 0x0 KECCAK256 SWAP1 PUSH1 0x1F ADD PUSH1 0x20 SWAP1 DIV DUP2 ADD SWAP3 DUP3 PUSH2 0x1B9 JUMPI PUSH1 0x0 DUP6 SSTORE PUSH2 0x1FF JUMP JUMPDEST DUP3 PUSH1 0x1F LT PUSH2 0x1D2 JUMPI DUP1 MLOAD PUSH1 0xFF NOT AND DUP4 DUP1 ADD OR DUP6 SSTORE PUSH2 0x1FF JUMP JUMPDEST DUP3 DUP1 ADD PUSH1 0x1 ADD DUP6 SSTORE DUP3 ISZERO PUSH2 0x1FF JUMPI SWAP2 DUP3 ADD JUMPDEST DUP3 DUP2 GT ISZERO PUSH2 0x1FF JUMPI DUP3 MLOAD DUP3 SSTORE SWAP2 PUSH1 0x20 ADD SWAP2 SWAP1 PUSH1 0x1 ADD SWAP1 PUSH2 0x1E4 JUMP JUMPDEST POP PUSH2 0x20B SWAP3 SWAP2 POP PUSH2 0x20F JUMP JUMPDEST POP SWAP1 JUMP JUMPDEST JUMPDEST DUP1 DUP3 GT ISZERO PUSH2 0x20B JUMPI PUSH1 0x0 DUP2 SSTORE PUSH1 0x1 ADD PUSH2 0x210 JUMP JUMPDEST PUSH1 0x0 PUSH1 0x20 DUP3 DUP5 SUB SLT ISZERO PUSH2 0x235 JUMPI DUP1 DUP2 REVERT JUMPDEST DUP2 CALLDATALOAD PUSH8 0xFFFFFFFFFFFFFFFF DUP1 DUP3 GT ISZERO PUSH2 0x24C JUMPI DUP3 DUP4 REVERT JUMPDEST DUP2 DUP5 ADD SWAP2 POP DUP5 PUSH1 0x1F DUP4 ADD SLT PUSH2 0x25F JUMPI DUP3 DUP4 REVERT JUMPDEST DUP2 CALLDATALOAD DUP2 DUP2 GT ISZERO PUSH2 0x271 JUMPI PUSH2 0x271 PUSH2 0x3A1 JUMP JUMPDEST PUSH1 0x40 MLOAD PUSH1 0x1F DUP3 ADD PUSH1 0x1F NOT SWAP1 DUP2 AND PUSH1 0x3F ADD AND DUP2 ADD SWAP1 DUP4 DUP3 GT DUP2 DUP4 LT OR ISZERO PUSH2 0x299 JUMPI PUSH2 0x299 PUSH2 0x3A1 JUMP JUMPDEST DUP2 PUSH1 0x40 MSTORE DUP3 DUP2 MSTORE DUP8 PUSH1 0x20 DUP5 DUP8 ADD ADD GT ISZERO PUSH2 0x2B1 JUMPI DUP6 DUP7 REVERT JUMPDEST DUP3 PUSH1 0x20 DUP7 ADD PUSH1 0x20 DUP4 ADD CALLDATACOPY SWAP2 DUP3 ADD PUSH1 0x20 ADD SWAP5 SWAP1 SWAP5 MSTORE SWAP6 SWAP5 POP POP POP POP POP JUMP JUMPDEST PUSH1 0x0 PUSH1 0x20 DUP1 DUP4 ADD DUP2 DUP5 MSTORE DUP1 DUP6 MLOAD DUP1 DUP4 MSTORE PUSH1 0x40 DUP7 ADD SWAP2 POP PUSH1 0x40 DUP2 PUSH1 0x5 SHL DUP8 ADD ADD SWAP3 POP DUP4 DUP8 ADD DUP6 JUMPDEST DUP3 DUP2 LT ISZERO PUSH2 0x359 JUMPI DUP8 DUP6 SUB PUSH1 0x3F NOT ADD DUP5 MSTORE DUP2 MLOAD DUP1 MLOAD DUP1 DUP8 MSTORE DUP9 JUMPDEST DUP2 DUP2 LT ISZERO PUSH2 0x329 JUMPI DUP3 DUP2 ADD DUP10 ADD MLOAD DUP9 DUP3 ADD DUP11 ADD MSTORE DUP9 ADD PUSH2 0x30E JUMP JUMPDEST DUP2 DUP2 GT ISZERO PUSH2 0x339 JUMPI DUP10 DUP10 DUP4 DUP11 ADD ADD MSTORE JUMPDEST POP PUSH1 0x1F ADD PUSH1 0x1F NOT AND SWAP6 SWAP1 SWAP6 ADD DUP7 ADD SWAP5 POP SWAP3 DUP6 ADD SWAP3 SWAP1 DUP6 ADD SWAP1 PUSH1 0x1 ADD PUSH2 0x2F4 JUMP JUMPDEST POP SWAP3 SWAP8 SWAP7 POP POP POP POP POP POP POP JUMP JUMPDEST PUSH1 0x1 DUP2 DUP2 SHR SWAP1 DUP3 AND DUP1 PUSH2 0x37A JUMPI PUSH1 0x7F DUP3 AND SWAP2 POP JUMPDEST PUSH1 0x20 DUP3 LT DUP2 EQ ISZERO PUSH2 0x39B JUMPI PUSH4 0x4E487B71 PUSH1 0xE0 SHL PUSH1 0x0 MSTORE PUSH1 0x22 PUSH1 0x4 MSTORE PUSH1 0x24 PUSH1 0x0 REVERT JUMPDEST POP SWAP2 SWAP1 POP JUMP JUMPDEST PUSH4 0x4E487B71 PUSH1 0xE0 SHL PUSH1 0x0 MSTORE PUSH1 0x41 PUSH1 0x4 MSTORE PUSH1 0x24 PUSH1 0x0 REVERT INVALID LOG2 PUSH5 0x6970667358 0x22 SLT KECCAK256 0xB4 SMOD SIGNEXTEND 0xB6 0x2E GAS PUSH4 0xBD297A5D DIV 0x4B MUL DUP13 CREATE 0xBD SWAP11 CALLDATALOAD 0x48 0x23 0xAE 0xD0 0x4E DUP14 PUSH32 0xD81DC6F4BF4E64736F6C63430008040033000000000000000000000000000000 "
    },
    "gasEstimates": {
      "creation": {
        "codeDepositCost": "201000",
        "executionCost": "245",
        "totalCost": "201245"
      },
      "external": {
        "createNewServiceProvider(string)": "infinite",
        "getServiceProviders()": "infinite"
      }
    },
    "methodIdentifiers": {
      "createNewServiceProvider(string)": "4d559dc8",
      "getServiceProviders()": "41caa43e"
    }
  },
  "storageLayout": {
    "storage": [
      {
        "astId": 4,
        "contract": "ServiceManager.sol:ServiceManager",
        "label": "serviceProviders",
        "offset": 0,
        "slot": "0",
        "type": "t_array(t_string_storage)dyn_storage"
      }
    ],
    "types": {
      "t_array(t_string_storage)dyn_storage": {
        "base": "t_string_storage",
        "encoding": "dynamic_array",
        "label": "string[]",
        "numberOfBytes": "32"
      },
      "t_string_storage": {
        "encoding": "bytes",
        "label": "string",
        "numberOfBytes": "32"
      }
    }
  },
  "userdoc": {
    "kind": "user",
    "methods": {},
    "version": 1
  }
}