{
  "_format": "hh-sol-artifact-1",
  "contractName": "ServiceManager",
  "sourceName": "contracts/ServiceManager.sol",
  "abi": [
    {
      "anonymous": false,
      "inputs": [
        {
          "indexed": false,
          "internalType": "string",
          "name": "message",
          "type": "string"
        }
      ],
      "name": "ErrorNotice",
      "type": "event"
    },
    {
      "anonymous": false,
      "inputs": [
        {
          "indexed": false,
          "internalType": "bytes",
          "name": "data",
          "type": "bytes"
        }
      ],
      "name": "ErrorNoticeBytes",
      "type": "event"
    },
    {
      "anonymous": false,
      "inputs": [
        {
          "indexed": true,
          "internalType": "address",
          "name": "client",
          "type": "address"
        },
        {
          "indexed": true,
          "internalType": "address",
          "name": "provider",
          "type": "address"
        },
        {
          "indexed": false,
          "internalType": "address",
          "name": "agreemenAddress",
          "type": "address"
        }
      ],
      "name": "NewAgreement",
      "type": "event"
    },
    {
      "anonymous": false,
      "inputs": [
        {
          "indexed": true,
          "internalType": "address",
          "name": "owner",
          "type": "address"
        }
      ],
      "name": "RegisterServiceProvider",
      "type": "event"
    },
    {
      "inputs": [
        {
          "internalType": "string",
          "name": "_companyName",
          "type": "string"
        },
        {
          "internalType": "string",
          "name": "_email",
          "type": "string"
        },
        {
          "internalType": "string",
          "name": "_phone",
          "type": "string"
        },
        {
          "internalType": "uint256",
          "name": "_serviceAmount",
          "type": "uint256"
        },
        {
          "internalType": "enum ServiceManager.ServiceCategory",
          "name": "_serviceCategory",
          "type": "uint8"
        }
      ],
      "name": "createNewServiceProvider",
      "outputs": [],
      "stateMutability": "nonpayable",
      "type": "function"
    },
    {
      "inputs": [
        {
          "internalType": "address",
          "name": "_provider",
          "type": "address"
        }
      ],
      "name": "createServiceAgreement",
      "outputs": [],
      "stateMutability": "nonpayable",
      "type": "function"
    },
    {
      "inputs": [],
      "name": "getAllServiceProviders",
      "outputs": [
        {
          "components": [
            {
              "internalType": "address",
              "name": "owner",
              "type": "address"
            },
            {
              "internalType": "string",
              "name": "companyName",
              "type": "string"
            },
            {
              "internalType": "string",
              "name": "email",
              "type": "string"
            },
            {
              "internalType": "string",
              "name": "phone",
              "type": "string"
            },
            {
              "internalType": "uint256",
              "name": "serviceAmount",
              "type": "uint256"
            },
            {
              "internalType": "enum ServiceManager.ServiceCategory",
              "name": "serviceCategory",
              "type": "uint8"
            },
            {
              "internalType": "uint256",
              "name": "index",
              "type": "uint256"
            }
          ],
          "internalType": "struct ServiceManager.ServicesProvider[]",
          "name": "",
          "type": "tuple[]"
        }
      ],
      "stateMutability": "view",
      "type": "function"
    },
    {
      "inputs": [
        {
          "internalType": "address",
          "name": "client",
          "type": "address"
        }
      ],
      "name": "getClientServiceAgreements",
      "outputs": [
        {
          "internalType": "address[]",
          "name": "",
          "type": "address[]"
        }
      ],
      "stateMutability": "view",
      "type": "function"
    },
    {
      "inputs": [
        {
          "internalType": "address",
          "name": "provider",
          "type": "address"
        }
      ],
      "name": "getProviderServiceAgreements",
      "outputs": [
        {
          "internalType": "address[]",
          "name": "",
          "type": "address[]"
        }
      ],
      "stateMutability": "view",
      "type": "function"
    },
    {
      "inputs": [
        {
          "internalType": "address",
          "name": "_address",
          "type": "address"
        }
      ],
      "name": "getServiceProvider",
      "outputs": [
        {
          "components": [
            {
              "internalType": "address",
              "name": "owner",
              "type": "address"
            },
            {
              "internalType": "string",
              "name": "companyName",
              "type": "string"
            },
            {
              "internalType": "string",
              "name": "email",
              "type": "string"
            },
            {
              "internalType": "string",
              "name": "phone",
              "type": "string"
            },
            {
              "internalType": "uint256",
              "name": "serviceAmount",
              "type": "uint256"
            },
            {
              "internalType": "enum ServiceManager.ServiceCategory",
              "name": "serviceCategory",
              "type": "uint8"
            },
            {
              "internalType": "uint256",
              "name": "index",
              "type": "uint256"
            }
          ],
          "internalType": "struct ServiceManager.ServicesProvider",
          "name": "",
          "type": "tuple"
        }
      ],
      "stateMutability": "view",
      "type": "function"
    }
  ],
  "bytecode": "0x608060405234801561001057600080fd5b506125b8806100206000396000f3fe60806040523480156200001157600080fd5b50600436106200006a5760003560e01c806304a15d74146200006f578063589b695e14620000915780638cc01c8614620000c75780639f92333d14620000fd578063b0edda56146200011d578063c35eb8da1462000153575b600080fd5b6200007962000173565b6040516200008891906200164a565b60405180910390f35b620000af6004803603810190620000a99190620016b3565b6200052a565b604051620000be9190620017a2565b60405180910390f35b620000e56004803603810190620000df9190620016b3565b620005f9565b604051620000f491906200187e565b60405180910390f35b6200011b6004803603810190620001159190620016b3565b620009ec565b005b6200013b6004803603810190620001359190620016b3565b62000efc565b6040516200014a9190620017a2565b60405180910390f35b6200017160048036038101906200016b919062001a4c565b62000fcb565b005b6060600060018054905067ffffffffffffffff811115620001995762000198620018ac565b5b604051908082528060200260200182016040528015620001d657816020015b620001c2620012d2565b815260200190600190039081620001b85790505b50905060005b600180549050811015620005225760006001828154811062000203576200020262001b31565b5b9060005260206000200160009054906101000a900473ffffffffffffffffffffffffffffffffffffffff1690506000808273ffffffffffffffffffffffffffffffffffffffff1673ffffffffffffffffffffffffffffffffffffffff1681526020019081526020016000206040518060e00160405290816000820160009054906101000a900473ffffffffffffffffffffffffffffffffffffffff1673ffffffffffffffffffffffffffffffffffffffff1673ffffffffffffffffffffffffffffffffffffffff168152602001600182018054620002e19062001b8f565b80601f01602080910402602001604051908101604052809291908181526020018280546200030f9062001b8f565b8015620003605780601f10620003345761010080835404028352916020019162000360565b820191906000526020600020905b8154815290600101906020018083116200034257829003601f168201915b505050505081526020016002820180546200037b9062001b8f565b80601f0160208091040260200160405190810160405280929190818152602001828054620003a99062001b8f565b8015620003fa5780601f10620003ce57610100808354040283529160200191620003fa565b820191906000526020600020905b815481529060010190602001808311620003dc57829003601f168201915b50505050508152602001600382018054620004159062001b8f565b80601f0160208091040260200160405190810160405280929190818152602001828054620004439062001b8f565b8015620004945780601f10620004685761010080835404028352916020019162000494565b820191906000526020600020905b8154815290600101906020018083116200047657829003601f168201915b50505050508152602001600482015481526020016005820160009054906101000a900460ff166004811115620004cf57620004ce6200146e565b5b6004811115620004e457620004e36200146e565b5b815260200160068201548152505083838151811062000508576200050762001b31565b5b6020026020010181905250508080600101915050620001dc565b508091505090565b6060600360008373ffffffffffffffffffffffffffffffffffffffff1673ffffffffffffffffffffffffffffffffffffffff168152602001908152602001600020805480602002602001604051908101604052809291908181526020018280548015620005ed57602002820191906000526020600020905b8160009054906101000a900473ffffffffffffffffffffffffffffffffffffffff1673ffffffffffffffffffffffffffffffffffffffff1681526020019060010190808311620005a2575b50505050509050919050565b62000603620012d2565b816000600180549050036200064f576040517f08c379a0000000000000000000000000000000000000000000000000000000008152600401620006469062001c25565b60405180910390fd5b600073ffffffffffffffffffffffffffffffffffffffff166000808373ffffffffffffffffffffffffffffffffffffffff1673ffffffffffffffffffffffffffffffffffffffff16815260200190815260200160002060000160009054906101000a900473ffffffffffffffffffffffffffffffffffffffff1673ffffffffffffffffffffffffffffffffffffffff160362000722576040517f08c379a0000000000000000000000000000000000000000000000000000000008152600401620007199062001c97565b60405180910390fd5b6000808473ffffffffffffffffffffffffffffffffffffffff1673ffffffffffffffffffffffffffffffffffffffff1681526020019081526020016000206040518060e00160405290816000820160009054906101000a900473ffffffffffffffffffffffffffffffffffffffff1673ffffffffffffffffffffffffffffffffffffffff1673ffffffffffffffffffffffffffffffffffffffff168152602001600182018054620007d39062001b8f565b80601f0160208091040260200160405190810160405280929190818152602001828054620008019062001b8f565b8015620008525780601f10620008265761010080835404028352916020019162000852565b820191906000526020600020905b8154815290600101906020018083116200083457829003601f168201915b505050505081526020016002820180546200086d9062001b8f565b80601f01602080910402602001604051908101604052809291908181526020018280546200089b9062001b8f565b8015620008ec5780601f10620008c057610100808354040283529160200191620008ec565b820191906000526020600020905b815481529060010190602001808311620008ce57829003601f168201915b50505050508152602001600382018054620009079062001b8f565b80601f0160208091040260200160405190810160405280929190818152602001828054620009359062001b8f565b8015620009865780601f106200095a5761010080835404028352916020019162000986565b820191906000526020600020905b8154815290600101906020018083116200096857829003601f168201915b50505050508152602001600482015481526020016005820160009054906101000a900460ff166004811115620009c157620009c06200146e565b5b6004811115620009d657620009d56200146e565b5b8152602001600682015481525050915050919050565b8060006001805490500362000a38576040517f08c379a000000000000000000000000000000000000000000000000000000000815260040162000a2f9062001c25565b60405180910390fd5b600073ffffffffffffffffffffffffffffffffffffffff166000808373ffffffffffffffffffffffffffffffffffffffff1673ffffffffffffffffffffffffffffffffffffffff16815260200190815260200160002060000160009054906101000a900473ffffffffffffffffffffffffffffffffffffffff1673ffffffffffffffffffffffffffffffffffffffff160362000b0b576040517f08c379a000000000000000000000000000000000000000000000000000000000815260040162000b029062001c97565b60405180910390fd5b3373ffffffffffffffffffffffffffffffffffffffff168273ffffffffffffffffffffffffffffffffffffffff160362000b7c576040517f08c379a000000000000000000000000000000000000000000000000000000000815260040162000b739062001d2f565b60405180910390fd5b60008060008473ffffffffffffffffffffffffffffffffffffffff1673ffffffffffffffffffffffffffffffffffffffff168152602001908152602001600020600401549050803373ffffffffffffffffffffffffffffffffffffffff1631101562000c1f576040517f08c379a000000000000000000000000000000000000000000000000000000000815260040162000c169062001da1565b60405180910390fd5b33838260405162000c30906200133a565b62000c3e9392919062001de5565b604051809103906000f0801562000c525760015b62000d3c5762000c6162001e2f565b806308c379a00362000cc5575062000c7862001e54565b8062000c85575062000cc7565b7fe5307846deb3ee14462a061cebc519cf970b90c5ef543f6a1c5de0511d3aecc58160405162000cb6919062001f30565b60405180910390a15062000d36565b505b3d806000811462000cf5576040519150601f19603f3d011682016040523d82523d6000602084013e62000cfa565b606091505b507f1528223f78b06a05b19325bfb9796bc977e6fdd9bf004652ec38c31c5daf36fd8160405162000d2c919062001fb1565b60405180910390a1505b62000ef7565b60008190506000600260003373ffffffffffffffffffffffffffffffffffffffff1673ffffffffffffffffffffffffffffffffffffffff168152602001908152602001600020905080829080600181540180825580915050600190039060005260206000200160009091909190916101000a81548173ffffffffffffffffffffffffffffffffffffffff021916908373ffffffffffffffffffffffffffffffffffffffff1602179055506000600360008873ffffffffffffffffffffffffffffffffffffffff1673ffffffffffffffffffffffffffffffffffffffff168152602001908152602001600020905080839080600181540180825580915050600190039060005260206000200160009091909190916101000a81548173ffffffffffffffffffffffffffffffffffffffff021916908373ffffffffffffffffffffffffffffffffffffffff1602179055508673ffffffffffffffffffffffffffffffffffffffff163373ffffffffffffffffffffffffffffffffffffffff167f5f080cc5e67992497ccc441e5f4a10e233f647c8af9713f56a96217ee648b3958560405162000eea919062001fd5565b60405180910390a3505050505b505050565b6060600260008373ffffffffffffffffffffffffffffffffffffffff1673ffffffffffffffffffffffffffffffffffffffff16815260200190815260200160002080548060200260200160405190810160405280929190818152602001828054801562000fbf57602002820191906000526020600020905b8160009054906101000a900473ffffffffffffffffffffffffffffffffffffffff1673ffffffffffffffffffffffffffffffffffffffff168152602001906001019080831162000f74575b50505050509050919050565b600073ffffffffffffffffffffffffffffffffffffffff166000803373ffffffffffffffffffffffffffffffffffffffff1673ffffffffffffffffffffffffffffffffffffffff16815260200190815260200160002060000160009054906101000a900473ffffffffffffffffffffffffffffffffffffffff1673ffffffffffffffffffffffffffffffffffffffff16146200109e576040517f08c379a0000000000000000000000000000000000000000000000000000000008152600401620010959062002042565b60405180910390fd5b6001339080600181540180825580915050600190039060005260206000200160009091909190916101000a81548173ffffffffffffffffffffffffffffffffffffffff021916908373ffffffffffffffffffffffffffffffffffffffff1602179055506040518060e001604052803373ffffffffffffffffffffffffffffffffffffffff1681526020018681526020018581526020018481526020018381526020018260048111156200115657620011556200146e565b5b8152602001600180805490506200116e919062002093565b8152506000803373ffffffffffffffffffffffffffffffffffffffff1673ffffffffffffffffffffffffffffffffffffffff16815260200190815260200160002060008201518160000160006101000a81548173ffffffffffffffffffffffffffffffffffffffff021916908373ffffffffffffffffffffffffffffffffffffffff16021790555060208201518160010190816200120d9190620022a0565b506040820151816002019081620012259190620022a0565b5060608201518160030190816200123d9190620022a0565b506080820151816004015560a08201518160050160006101000a81548160ff021916908360048111156200127657620012756200146e565b5b021790555060c082015181600601559050503373ffffffffffffffffffffffffffffffffffffffff167fb07ee47d30ff102d3098744f1169fe6dd05b88aa890fe75d363d5e4d16b81ca160405160405180910390a25050505050565b6040518060e00160405280600073ffffffffffffffffffffffffffffffffffffffff16815260200160608152602001606081526020016060815260200160008152602001600060048111156200132d576200132c6200146e565b5b8152602001600081525090565b6101fb806200238883390190565b600081519050919050565b600082825260208201905092915050565b6000819050602082019050919050565b600073ffffffffffffffffffffffffffffffffffffffff82169050919050565b6000620013a18262001374565b9050919050565b620013b38162001394565b82525050565b600081519050919050565b600082825260208201905092915050565b60005b83811015620013f5578082015181840152602081019050620013d8565b60008484015250505050565b6000601f19601f8301169050919050565b60006200141f82620013b9565b6200142b8185620013c4565b93506200143d818560208601620013d5565b620014488162001401565b840191505092915050565b6000819050919050565b620014688162001453565b82525050565b7f4e487b7100000000000000000000000000000000000000000000000000000000600052602160045260246000fd5b60058110620014b157620014b06200146e565b5b50565b6000819050620014c4826200149d565b919050565b6000620014d682620014b4565b9050919050565b620014e881620014c9565b82525050565b600060e083016000830151620015086000860182620013a8565b506020830151848203602086015262001522828262001412565b915050604083015184820360408601526200153e828262001412565b915050606083015184820360608601526200155a828262001412565b91505060808301516200157160808601826200145d565b5060a08301516200158660a0860182620014dd565b5060c08301516200159b60c08601826200145d565b508091505092915050565b6000620015b48383620014ee565b905092915050565b6000602082019050919050565b6000620015d68262001348565b620015e2818562001353565b935083602082028501620015f68562001364565b8060005b85811015620016385784840389528151620016168582620015a6565b94506200162383620015bc565b925060208a01995050600181019050620015fa565b50829750879550505050505092915050565b60006020820190508181036000830152620016668184620015c9565b905092915050565b6000604051905090565b600080fd5b600080fd5b6200168d8162001394565b81146200169957600080fd5b50565b600081359050620016ad8162001682565b92915050565b600060208284031215620016cc57620016cb62001678565b5b6000620016dc848285016200169c565b91505092915050565b600081519050919050565b600082825260208201905092915050565b6000819050602082019050919050565b60006200171f8383620013a8565b60208301905092915050565b6000602082019050919050565b60006200174582620016e5565b620017518185620016f0565b93506200175e8362001701565b8060005b838110156200179557815162001779888262001711565b975062001786836200172b565b92505060018101905062001762565b5085935050505092915050565b60006020820190508181036000830152620017be818462001738565b905092915050565b600060e083016000830151620017e06000860182620013a8565b5060208301518482036020860152620017fa828262001412565b9150506040830151848203604086015262001816828262001412565b9150506060830151848203606086015262001832828262001412565b91505060808301516200184960808601826200145d565b5060a08301516200185e60a0860182620014dd565b5060c08301516200187360c08601826200145d565b508091505092915050565b600060208201905081810360008301526200189a8184620017c6565b905092915050565b600080fd5b600080fd5b7f4e487b7100000000000000000000000000000000000000000000000000000000600052604160045260246000fd5b620018e68262001401565b810181811067ffffffffffffffff82111715620019085762001907620018ac565b5b80604052505050565b60006200191d6200166e565b90506200192b8282620018db565b919050565b600067ffffffffffffffff8211156200194e576200194d620018ac565b5b620019598262001401565b9050602081019050919050565b82818337600083830152505050565b60006200198c620019868462001930565b62001911565b905082815260208101848484011115620019ab57620019aa620018a7565b5b620019b884828562001966565b509392505050565b600082601f830112620019d857620019d7620018a2565b5b8135620019ea84826020860162001975565b91505092915050565b620019fe8162001453565b811462001a0a57600080fd5b50565b60008135905062001a1e81620019f3565b92915050565b6005811062001a3257600080fd5b50565b60008135905062001a468162001a24565b92915050565b600080600080600060a0868803121562001a6b5762001a6a62001678565b5b600086013567ffffffffffffffff81111562001a8c5762001a8b6200167d565b5b62001a9a88828901620019c0565b955050602086013567ffffffffffffffff81111562001abe5762001abd6200167d565b5b62001acc88828901620019c0565b945050604086013567ffffffffffffffff81111562001af05762001aef6200167d565b5b62001afe88828901620019c0565b935050606062001b118882890162001a0d565b925050608062001b248882890162001a35565b9150509295509295909350565b7f4e487b7100000000000000000000000000000000000000000000000000000000600052603260045260246000fd5b7f4e487b7100000000000000000000000000000000000000000000000000000000600052602260045260246000fd5b6000600282049050600182168062001ba857607f821691505b60208210810362001bbe5762001bbd62001b60565b5b50919050565b600082825260208201905092915050565b7f4e6f20736572766963652070726f766964657273000000000000000000000000600082015250565b600062001c0d60148362001bc4565b915062001c1a8262001bd5565b602082019050919050565b6000602082019050818103600083015262001c408162001bfe565b9050919050565b7f536572766963652070726f766964657220646f6573206e6f7420657869737400600082015250565b600062001c7f601f8362001bc4565b915062001c8c8262001c47565b602082019050919050565b6000602082019050818103600083015262001cb28162001c70565b9050919050565b7f70726f7669646572732063616e6e6f742063726561746520736572766963652060008201527f61677265656d7420776974682074686573657276657300000000000000000000602082015250565b600062001d1760368362001bc4565b915062001d248262001cb9565b604082019050919050565b6000602082019050818103600083015262001d4a8162001d08565b9050919050565b7f6e6f207469656e6520666f6e646f7320737566756369656e7465730000000000600082015250565b600062001d89601b8362001bc4565b915062001d968262001d51565b602082019050919050565b6000602082019050818103600083015262001dbc8162001d7a565b9050919050565b62001dce8162001394565b82525050565b62001ddf8162001453565b82525050565b600060608201905062001dfc600083018662001dc3565b62001e0b602083018562001dc3565b62001e1a604083018462001dd4565b949350505050565b60008160e01c9050919050565b600060033d111562001e515760046000803e62001e4e60005162001e22565b90505b90565b600060443d1062001eec5762001e696200166e565b60043d036004823e80513d602482011167ffffffffffffffff8211171562001e9357505062001eec565b808201805167ffffffffffffffff81111562001eb3575050505062001eec565b80602083010160043d03850181111562001ed257505050505062001eec565b62001ee382602001850186620018db565b82955050505050505b90565b600062001efc82620013b9565b62001f08818562001bc4565b935062001f1a818560208601620013d5565b62001f258162001401565b840191505092915050565b6000602082019050818103600083015262001f4c818462001eef565b905092915050565b600081519050919050565b600082825260208201905092915050565b600062001f7d8262001f54565b62001f89818562001f5f565b935062001f9b818560208601620013d5565b62001fa68162001401565b840191505092915050565b6000602082019050818103600083015262001fcd818462001f70565b905092915050565b600060208201905062001fec600083018462001dc3565b92915050565b7f536572766963652070726f766964657220616c72656164792065786973747300600082015250565b60006200202a601f8362001bc4565b9150620020378262001ff2565b602082019050919050565b600060208201905081810360008301526200205d816200201b565b9050919050565b7f4e487b7100000000000000000000000000000000000000000000000000000000600052601160045260246000fd5b6000620020a08262001453565b9150620020ad8362001453565b9250828203905081811115620020c857620020c762002064565b5b92915050565b60008190508160005260206000209050919050565b60006020601f8301049050919050565b600082821b905092915050565b600060088302620021327fffffffffffffffffffffffffffffffffffffffffffffffffffffffffffffffff82620020f3565b6200213e8683620020f3565b95508019841693508086168417925050509392505050565b6000819050919050565b6000620021816200217b620021758462001453565b62002156565b62001453565b9050919050565b6000819050919050565b6200219d8362002160565b620021b5620021ac8262002188565b84845462002100565b825550505050565b600090565b620021cc620021bd565b620021d981848462002192565b505050565b5b818110156200220157620021f5600082620021c2565b600181019050620021df565b5050565b601f82111562002250576200221a81620020ce565b6200222584620020e3565b8101602085101562002235578190505b6200224d6200224485620020e3565b830182620021de565b50505b505050565b600082821c905092915050565b6000620022756000198460080262002255565b1980831691505092915050565b600062002290838362002262565b9150826002028217905092915050565b620022ab82620013b9565b67ffffffffffffffff811115620022c757620022c6620018ac565b5b620022d3825462001b8f565b620022e082828562002205565b600060209050601f83116001811462002318576000841562002303578287015190505b6200230f858262002282565b8655506200237f565b601f1984166200232886620020ce565b60005b8281101562002352578489015182556001820191506020850194506020810190506200232b565b868310156200237257848901516200236e601f89168262002262565b8355505b6001600288020188555050505b50505050505056fe608060405234801561001057600080fd5b506040516101fb3803806101fb8339818101604052810190610032919061015b565b826000806101000a81548173ffffffffffffffffffffffffffffffffffffffff021916908373ffffffffffffffffffffffffffffffffffffffff16021790555081600160006101000a81548173ffffffffffffffffffffffffffffffffffffffff021916908373ffffffffffffffffffffffffffffffffffffffff160217905550806002819055505050506101ae565b600080fd5b600073ffffffffffffffffffffffffffffffffffffffff82169050919050565b60006100f2826100c7565b9050919050565b610102816100e7565b811461010d57600080fd5b50565b60008151905061011f816100f9565b92915050565b6000819050919050565b61013881610125565b811461014357600080fd5b50565b6000815190506101558161012f565b92915050565b600080600060608486031215610174576101736100c2565b5b600061018286828701610110565b935050602061019386828701610110565b92505060406101a486828701610146565b9150509250925092565b603f806101bc6000396000f3fe6080604052600080fdfea2646970667358221220e2c5db1cf75cda0df4a818a580c43571dd07feed58bfcf1bfc4362cd5ccdb2be64736f6c63430008180033a2646970667358221220338368d3166ef3937fe39563cfb66a777ad250a8fc065c421717fc1ee0c26ec564736f6c63430008180033",
  "linkReferences": {},
  "deployedLinkReferences": {}
}