{
  "_format": "hh-sol-artifact-1",
  "contractName": "ServiceManager",
  "sourceName": "contracts/ServiceManager.sol",
  "abi": [
    {
      "anonymous": false,
      "inputs": [
        {
          "indexed": false,
          "internalType": "string",
          "name": "message",
          "type": "string"
        }
      ],
      "name": "ErrorNotice",
      "type": "event"
    },
    {
      "anonymous": false,
      "inputs": [
        {
          "indexed": false,
          "internalType": "bytes",
          "name": "data",
          "type": "bytes"
        }
      ],
      "name": "ErrorNoticeBytes",
      "type": "event"
    },
    {
      "anonymous": false,
      "inputs": [
        {
          "indexed": true,
          "internalType": "address",
          "name": "client",
          "type": "address"
        },
        {
          "indexed": true,
          "internalType": "address",
          "name": "provider",
          "type": "address"
        },
        {
          "indexed": false,
          "internalType": "address",
          "name": "agreemenAddress",
          "type": "address"
        }
      ],
      "name": "NewAgreement",
      "type": "event"
    },
    {
      "anonymous": false,
      "inputs": [
        {
          "indexed": true,
          "internalType": "address",
          "name": "owner",
          "type": "address"
        }
      ],
      "name": "RegisterServiceProvider",
      "type": "event"
    },
    {
      "inputs": [
        {
          "internalType": "string",
          "name": "_companyName",
          "type": "string"
        },
        {
          "internalType": "string",
          "name": "_email",
          "type": "string"
        },
        {
          "internalType": "string",
          "name": "_phone",
          "type": "string"
        },
        {
          "internalType": "uint256",
          "name": "_serviceAmount",
          "type": "uint256"
        },
        {
          "internalType": "enum ServiceManager.ServiceCategory",
          "name": "_serviceCategory",
          "type": "uint8"
        }
      ],
      "name": "createNewServiceProvider",
      "outputs": [],
      "stateMutability": "nonpayable",
      "type": "function"
    },
    {
      "inputs": [
        {
          "internalType": "address",
          "name": "_provider",
          "type": "address"
        }
      ],
      "name": "createServiceAgreement",
      "outputs": [],
      "stateMutability": "nonpayable",
      "type": "function"
    },
    {
      "inputs": [],
      "name": "getAllServiceProviders",
      "outputs": [
        {
          "components": [
            {
              "internalType": "address",
              "name": "owner",
              "type": "address"
            },
            {
              "internalType": "string",
              "name": "companyName",
              "type": "string"
            },
            {
              "internalType": "string",
              "name": "email",
              "type": "string"
            },
            {
              "internalType": "string",
              "name": "phone",
              "type": "string"
            },
            {
              "internalType": "uint256",
              "name": "serviceAmount",
              "type": "uint256"
            },
            {
              "internalType": "enum ServiceManager.ServiceCategory",
              "name": "serviceCategory",
              "type": "uint8"
            },
            {
              "internalType": "uint256",
              "name": "index",
              "type": "uint256"
            }
          ],
          "internalType": "struct ServiceManager.ServicesProvider[]",
          "name": "",
          "type": "tuple[]"
        }
      ],
      "stateMutability": "view",
      "type": "function"
    },
    {
      "inputs": [
        {
          "internalType": "address",
          "name": "client",
          "type": "address"
        }
      ],
      "name": "getClientServiceAgreements",
      "outputs": [
        {
          "internalType": "address[]",
          "name": "",
          "type": "address[]"
        }
      ],
      "stateMutability": "view",
      "type": "function"
    },
    {
      "inputs": [
        {
          "internalType": "address",
          "name": "provider",
          "type": "address"
        }
      ],
      "name": "getProviderServiceAgreements",
      "outputs": [
        {
          "internalType": "address[]",
          "name": "",
          "type": "address[]"
        }
      ],
      "stateMutability": "view",
      "type": "function"
    },
    {
      "inputs": [
        {
          "internalType": "address",
          "name": "_address",
          "type": "address"
        }
      ],
      "name": "getServiceProvider",
      "outputs": [
        {
          "components": [
            {
              "internalType": "address",
              "name": "owner",
              "type": "address"
            },
            {
              "internalType": "string",
              "name": "companyName",
              "type": "string"
            },
            {
              "internalType": "string",
              "name": "email",
              "type": "string"
            },
            {
              "internalType": "string",
              "name": "phone",
              "type": "string"
            },
            {
              "internalType": "uint256",
              "name": "serviceAmount",
              "type": "uint256"
            },
            {
              "internalType": "enum ServiceManager.ServiceCategory",
              "name": "serviceCategory",
              "type": "uint8"
            },
            {
              "internalType": "uint256",
              "name": "index",
              "type": "uint256"
            }
          ],
          "internalType": "struct ServiceManager.ServicesProvider",
          "name": "",
          "type": "tuple"
        }
      ],
      "stateMutability": "view",
      "type": "function"
    }
  ],
  "bytecode": "0x608060405234801561001057600080fd5b50612524806100206000396000f3fe60806040523480156200001157600080fd5b50600436106200006a5760003560e01c806304a15d74146200006f578063589b695e14620000915780638cc01c8614620000c75780639f92333d14620000fd578063b0edda56146200011d578063c35eb8da1462000153575b600080fd5b6200007962000173565b60405162000088919062001c17565b60405180910390f35b620000af6004803603810190620000a991906200163a565b620005e6565b604051620000be919062001bf3565b60405180910390f35b620000e56004803603810190620000df91906200163a565b620006b5565b604051620000f4919062001d2d565b60405180910390f35b6200011b60048036038101906200011591906200163a565b62000af2565b005b6200013b60048036038101906200013591906200163a565b62001006565b6040516200014a919062001bf3565b60405180910390f35b6200017160048036038101906200016b919062001666565b620010d5565b005b6060600060018054905067ffffffffffffffff811115620001bd577f4e487b7100000000000000000000000000000000000000000000000000000000600052604160045260246000fd5b604051908082528060200260200182016040528015620001fa57816020015b620001e662001439565b815260200190600190039081620001dc5790505b50905060005b600180549050811015620005de576000600182815481106200024b577f4e487b7100000000000000000000000000000000000000000000000000000000600052603260045260246000fd5b9060005260206000200160009054906101000a900473ffffffffffffffffffffffffffffffffffffffff1690506000808273ffffffffffffffffffffffffffffffffffffffff1673ffffffffffffffffffffffffffffffffffffffff1681526020019081526020016000206040518060e00160405290816000820160009054906101000a900473ffffffffffffffffffffffffffffffffffffffff1673ffffffffffffffffffffffffffffffffffffffff1673ffffffffffffffffffffffffffffffffffffffff168152602001600182018054620003299062001f52565b80601f0160208091040260200160405190810160405280929190818152602001828054620003579062001f52565b8015620003a85780601f106200037c57610100808354040283529160200191620003a8565b820191906000526020600020905b8154815290600101906020018083116200038a57829003601f168201915b50505050508152602001600282018054620003c39062001f52565b80601f0160208091040260200160405190810160405280929190818152602001828054620003f19062001f52565b8015620004425780601f10620004165761010080835404028352916020019162000442565b820191906000526020600020905b8154815290600101906020018083116200042457829003601f168201915b505050505081526020016003820180546200045d9062001f52565b80601f01602080910402602001604051908101604052809291908181526020018280546200048b9062001f52565b8015620004dc5780601f10620004b057610100808354040283529160200191620004dc565b820191906000526020600020905b815481529060010190602001808311620004be57829003601f168201915b50505050508152602001600482015481526020016005820160009054906101000a900460ff1660048111156200053b577f4e487b7100000000000000000000000000000000000000000000000000000000600052602160045260246000fd5b600481111562000574577f4e487b7100000000000000000000000000000000000000000000000000000000600052602160045260246000fd5b8152602001600682015481525050838381518110620005bc577f4e487b7100000000000000000000000000000000000000000000000000000000600052603260045260246000fd5b6020026020010181905250508080620005d59062001fbe565b91505062000200565b508091505090565b6060600360008373ffffffffffffffffffffffffffffffffffffffff1673ffffffffffffffffffffffffffffffffffffffff168152602001908152602001600020805480602002602001604051908101604052809291908181526020018280548015620006a957602002820191906000526020600020905b8160009054906101000a900473ffffffffffffffffffffffffffffffffffffffff1673ffffffffffffffffffffffffffffffffffffffff16815260200190600101908083116200065e575b50505050509050919050565b620006bf62001439565b81600060018054905014156200070c576040517f08c379a0000000000000000000000000000000000000000000000000000000008152600401620007039062001d0b565b60405180910390fd5b600073ffffffffffffffffffffffffffffffffffffffff166000808373ffffffffffffffffffffffffffffffffffffffff1673ffffffffffffffffffffffffffffffffffffffff16815260200190815260200160002060000160009054906101000a900473ffffffffffffffffffffffffffffffffffffffff1673ffffffffffffffffffffffffffffffffffffffff161415620007e0576040517f08c379a0000000000000000000000000000000000000000000000000000000008152600401620007d79062001c83565b60405180910390fd5b6000808473ffffffffffffffffffffffffffffffffffffffff1673ffffffffffffffffffffffffffffffffffffffff1681526020019081526020016000206040518060e00160405290816000820160009054906101000a900473ffffffffffffffffffffffffffffffffffffffff1673ffffffffffffffffffffffffffffffffffffffff1673ffffffffffffffffffffffffffffffffffffffff168152602001600182018054620008919062001f52565b80601f0160208091040260200160405190810160405280929190818152602001828054620008bf9062001f52565b8015620009105780601f10620008e45761010080835404028352916020019162000910565b820191906000526020600020905b815481529060010190602001808311620008f257829003601f168201915b505050505081526020016002820180546200092b9062001f52565b80601f0160208091040260200160405190810160405280929190818152602001828054620009599062001f52565b8015620009aa5780601f106200097e57610100808354040283529160200191620009aa565b820191906000526020600020905b8154815290600101906020018083116200098c57829003601f168201915b50505050508152602001600382018054620009c59062001f52565b80601f0160208091040260200160405190810160405280929190818152602001828054620009f39062001f52565b801562000a445780601f1062000a185761010080835404028352916020019162000a44565b820191906000526020600020905b81548152906001019060200180831162000a2657829003601f168201915b50505050508152602001600482015481526020016005820160009054906101000a900460ff16600481111562000aa3577f4e487b7100000000000000000000000000000000000000000000000000000000600052602160045260246000fd5b600481111562000adc577f4e487b7100000000000000000000000000000000000000000000000000000000600052602160045260246000fd5b8152602001600682015481525050915050919050565b806000600180549050141562000b3f576040517f08c379a000000000000000000000000000000000000000000000000000000000815260040162000b369062001d0b565b60405180910390fd5b600073ffffffffffffffffffffffffffffffffffffffff166000808373ffffffffffffffffffffffffffffffffffffffff1673ffffffffffffffffffffffffffffffffffffffff16815260200190815260200160002060000160009054906101000a900473ffffffffffffffffffffffffffffffffffffffff1673ffffffffffffffffffffffffffffffffffffffff16141562000c13576040517f08c379a000000000000000000000000000000000000000000000000000000000815260040162000c0a9062001c83565b60405180910390fd5b3373ffffffffffffffffffffffffffffffffffffffff168273ffffffffffffffffffffffffffffffffffffffff16141562000c85576040517f08c379a000000000000000000000000000000000000000000000000000000000815260040162000c7c9062001ce9565b60405180910390fd5b60008060008473ffffffffffffffffffffffffffffffffffffffff1673ffffffffffffffffffffffffffffffffffffffff168152602001908152602001600020600401549050803373ffffffffffffffffffffffffffffffffffffffff1631101562000d28576040517f08c379a000000000000000000000000000000000000000000000000000000000815260040162000d1f9062001cc7565b60405180910390fd5b33838260405162000d3990620014c5565b62000d479392919062001bb6565b604051809103906000f0801562000d5b5760015b62000e465762000d6a620020c8565b806308c379a0141562000dcf575062000d82620021fe565b8062000d8f575062000dd1565b7fe5307846deb3ee14462a061cebc519cf970b90c5ef543f6a1c5de0511d3aecc58160405162000dc0919062001c5f565b60405180910390a15062000e40565b505b3d806000811462000dff576040519150601f19603f3d011682016040523d82523d6000602084013e62000e04565b606091505b507f1528223f78b06a05b19325bfb9796bc977e6fdd9bf004652ec38c31c5daf36fd8160405162000e36919062001c3b565b60405180910390a1505b62001001565b60008190506000600260003373ffffffffffffffffffffffffffffffffffffffff1673ffffffffffffffffffffffffffffffffffffffff168152602001908152602001600020905080829080600181540180825580915050600190039060005260206000200160009091909190916101000a81548173ffffffffffffffffffffffffffffffffffffffff021916908373ffffffffffffffffffffffffffffffffffffffff1602179055506000600360008873ffffffffffffffffffffffffffffffffffffffff1673ffffffffffffffffffffffffffffffffffffffff168152602001908152602001600020905080839080600181540180825580915050600190039060005260206000200160009091909190916101000a81548173ffffffffffffffffffffffffffffffffffffffff021916908373ffffffffffffffffffffffffffffffffffffffff1602179055508673ffffffffffffffffffffffffffffffffffffffff163373ffffffffffffffffffffffffffffffffffffffff167f5f080cc5e67992497ccc441e5f4a10e233f647c8af9713f56a96217ee648b3958560405162000ff4919062001b99565b60405180910390a3505050505b505050565b6060600260008373ffffffffffffffffffffffffffffffffffffffff1673ffffffffffffffffffffffffffffffffffffffff168152602001908152602001600020805480602002602001604051908101604052809291908181526020018280548015620010c957602002820191906000526020600020905b8160009054906101000a900473ffffffffffffffffffffffffffffffffffffffff1673ffffffffffffffffffffffffffffffffffffffff16815260200190600101908083116200107e575b50505050509050919050565b600073ffffffffffffffffffffffffffffffffffffffff166000803373ffffffffffffffffffffffffffffffffffffffff1673ffffffffffffffffffffffffffffffffffffffff16815260200190815260200160002060000160009054906101000a900473ffffffffffffffffffffffffffffffffffffffff1673ffffffffffffffffffffffffffffffffffffffff1614620011a8576040517f08c379a00000000000000000000000000000000000000000000000000000000081526004016200119f9062001ca5565b60405180910390fd5b6001339080600181540180825580915050600190039060005260206000200160009091909190916101000a81548173ffffffffffffffffffffffffffffffffffffffff021916908373ffffffffffffffffffffffffffffffffffffffff1602179055506040518060e001604052803373ffffffffffffffffffffffffffffffffffffffff16815260200186815260200185815260200184815260200183815260200182600481111562001284577f4e487b7100000000000000000000000000000000000000000000000000000000600052602160045260246000fd5b8152602001600180805490506200129c919062001e6b565b8152506000803373ffffffffffffffffffffffffffffffffffffffff1673ffffffffffffffffffffffffffffffffffffffff16815260200190815260200160002060008201518160000160006101000a81548173ffffffffffffffffffffffffffffffffffffffff021916908373ffffffffffffffffffffffffffffffffffffffff160217905550602082015181600101908051906020019062001342929190620014d3565b50604082015181600201908051906020019062001361929190620014d3565b50606082015181600301908051906020019062001380929190620014d3565b506080820151816004015560a08201518160050160006101000a81548160ff02191690836004811115620013dd577f4e487b7100000000000000000000000000000000000000000000000000000000600052602160045260246000fd5b021790555060c082015181600601559050503373ffffffffffffffffffffffffffffffffffffffff167fb07ee47d30ff102d3098744f1169fe6dd05b88aa890fe75d363d5e4d16b81ca160405160405180910390a25050505050565b6040518060e00160405280600073ffffffffffffffffffffffffffffffffffffffff1681526020016060815260200160608152602001606081526020016000815260200160006004811115620014b8577f4e487b7100000000000000000000000000000000000000000000000000000000600052602160045260246000fd5b8152602001600081525090565b6101f280620022fd83390190565b828054620014e19062001f52565b90600052602060002090601f01602090048101928262001505576000855562001551565b82601f106200152057805160ff191683800117855562001551565b8280016001018555821562001551579182015b828111156200155057825182559160200191906001019062001533565b5b50905062001560919062001564565b5090565b5b808211156200157f57600081600090555060010162001565565b5090565b60006200159a620015948462001d7a565b62001d51565b905082815260208101848484011115620015b357600080fd5b620015c084828562001f0d565b509392505050565b600081359050620015d981620022b7565b92915050565b600081359050620015f081620022d1565b92915050565b600082601f8301126200160857600080fd5b81356200161a84826020860162001583565b91505092915050565b6000813590506200163481620022e2565b92915050565b6000602082840312156200164d57600080fd5b60006200165d84828501620015c8565b91505092915050565b600080600080600060a086880312156200167f57600080fd5b600086013567ffffffffffffffff8111156200169a57600080fd5b620016a888828901620015f6565b955050602086013567ffffffffffffffff811115620016c657600080fd5b620016d488828901620015f6565b945050604086013567ffffffffffffffff811115620016f257600080fd5b6200170088828901620015f6565b9350506060620017138882890162001623565b92505060806200172688828901620015df565b9150509295509295909350565b600062001741838362001763565b60208301905092915050565b60006200175b838362001a07565b905092915050565b6200176e8162001ea6565b82525050565b6200177f8162001ea6565b82525050565b6000620017928262001dd0565b6200179e818562001e16565b9350620017ab8362001db0565b8060005b83811015620017e2578151620017c6888262001733565b9750620017d38362001dfc565b925050600181019050620017af565b5085935050505092915050565b6000620017fc8262001ddb565b62001808818562001e27565b9350836020820285016200181c8562001dc0565b8060005b858110156200185e57848403895281516200183c85826200174d565b9450620018498362001e09565b925060208a0199505060018101905062001820565b50829750879550505050505092915050565b60006200187d8262001de6565b62001889818562001e38565b93506200189b81856020860162001f1c565b620018a681620020ed565b840191505092915050565b620018bc8162001ef9565b82525050565b6000620018cf8262001df1565b620018db818562001e49565b9350620018ed81856020860162001f1c565b620018f881620020ed565b840191505092915050565b6000620019108262001df1565b6200191c818562001e5a565b93506200192e81856020860162001f1c565b6200193981620020ed565b840191505092915050565b600062001953601f8362001e5a565b915062001960826200210b565b602082019050919050565b60006200197a601f8362001e5a565b9150620019878262002134565b602082019050919050565b6000620019a1601b8362001e5a565b9150620019ae826200215d565b602082019050919050565b6000620019c860368362001e5a565b9150620019d58262002186565b604082019050919050565b6000620019ef60148362001e5a565b9150620019fc82620021d5565b602082019050919050565b600060e08301600083015162001a21600086018262001763565b506020830151848203602086015262001a3b8282620018c2565b9150506040830151848203604086015262001a578282620018c2565b9150506060830151848203606086015262001a738282620018c2565b915050608083015162001a8a608086018262001b77565b5060a083015162001a9f60a0860182620018b1565b5060c083015162001ab460c086018262001b77565b508091505092915050565b600060e08301600083015162001ad9600086018262001763565b506020830151848203602086015262001af38282620018c2565b9150506040830151848203604086015262001b0f8282620018c2565b9150506060830151848203606086015262001b2b8282620018c2565b915050608083015162001b42608086018262001b77565b5060a083015162001b5760a0860182620018b1565b5060c083015162001b6c60c086018262001b77565b508091505092915050565b62001b828162001eef565b82525050565b62001b938162001eef565b82525050565b600060208201905062001bb0600083018462001774565b92915050565b600060608201905062001bcd600083018662001774565b62001bdc602083018562001774565b62001beb604083018462001b88565b949350505050565b6000602082019050818103600083015262001c0f818462001785565b905092915050565b6000602082019050818103600083015262001c338184620017ef565b905092915050565b6000602082019050818103600083015262001c57818462001870565b905092915050565b6000602082019050818103600083015262001c7b818462001903565b905092915050565b6000602082019050818103600083015262001c9e8162001944565b9050919050565b6000602082019050818103600083015262001cc0816200196b565b9050919050565b6000602082019050818103600083015262001ce28162001992565b9050919050565b6000602082019050818103600083015262001d0481620019b9565b9050919050565b6000602082019050818103600083015262001d2681620019e0565b9050919050565b6000602082019050818103600083015262001d49818462001abf565b905092915050565b600062001d5d62001d70565b905062001d6b828262001f88565b919050565b6000604051905090565b600067ffffffffffffffff82111562001d985762001d9762002099565b5b62001da382620020ed565b9050602081019050919050565b6000819050602082019050919050565b6000819050602082019050919050565b600081519050919050565b600081519050919050565b600081519050919050565b600081519050919050565b6000602082019050919050565b6000602082019050919050565b600082825260208201905092915050565b600082825260208201905092915050565b600082825260208201905092915050565b600082825260208201905092915050565b600082825260208201905092915050565b600062001e788262001eef565b915062001e858362001eef565b92508282101562001e9b5762001e9a6200200c565b5b828203905092915050565b600062001eb38262001ecf565b9050919050565b600081905062001eca82620022a0565b919050565b600073ffffffffffffffffffffffffffffffffffffffff82169050919050565b6000819050919050565b600062001f068262001eba565b9050919050565b82818337600083830152505050565b60005b8381101562001f3c57808201518184015260208101905062001f1f565b8381111562001f4c576000848401525b50505050565b6000600282049050600182168062001f6b57607f821691505b6020821081141562001f825762001f816200206a565b5b50919050565b62001f9382620020ed565b810181811067ffffffffffffffff8211171562001fb55762001fb462002099565b5b80604052505050565b600062001fcb8262001eef565b91507fffffffffffffffffffffffffffffffffffffffffffffffffffffffffffffffff8214156200200157620020006200200c565b5b600182019050919050565b7f4e487b7100000000000000000000000000000000000000000000000000000000600052601160045260246000fd5b7f4e487b7100000000000000000000000000000000000000000000000000000000600052602160045260246000fd5b7f4e487b7100000000000000000000000000000000000000000000000000000000600052602260045260246000fd5b7f4e487b7100000000000000000000000000000000000000000000000000000000600052604160045260246000fd5b600060033d1115620020ea5760046000803e620020e7600051620020fe565b90505b90565b6000601f19601f8301169050919050565b60008160e01c9050919050565b7f536572766963652070726f766964657220646f6573206e6f7420657869737400600082015250565b7f536572766963652070726f766964657220616c72656164792065786973747300600082015250565b7f6e6f207469656e6520666f6e646f7320737566756369656e7465730000000000600082015250565b7f70726f7669646572732063616e6e6f742063726561746520736572766963652060008201527f61677265656d7420776974682074686573657276657300000000000000000000602082015250565b7f4e6f20736572766963652070726f766964657273000000000000000000000000600082015250565b600060443d101562002210576200229d565b6200221a62001d70565b60043d036004823e80513d602482011167ffffffffffffffff82111715620022445750506200229d565b808201805167ffffffffffffffff8111156200226457505050506200229d565b80602083010160043d038501811115620022835750505050506200229d565b620022948260200185018662001f88565b82955050505050505b90565b60058110620022b457620022b36200203b565b5b50565b620022c28162001ea6565b8114620022ce57600080fd5b50565b60058110620022df57600080fd5b50565b620022ed8162001eef565b8114620022f957600080fd5b5056fe608060405234801561001057600080fd5b506040516101f23803806101f2833981810160405281019061003291906100ec565b826000806101000a81548173ffffffffffffffffffffffffffffffffffffffff021916908373ffffffffffffffffffffffffffffffffffffffff16021790555081600160006101000a81548173ffffffffffffffffffffffffffffffffffffffff021916908373ffffffffffffffffffffffffffffffffffffffff160217905550806002819055505050506101a5565b6000815190506100d181610177565b92915050565b6000815190506100e68161018e565b92915050565b60008060006060848603121561010157600080fd5b600061010f868287016100c2565b9350506020610120868287016100c2565b9250506040610131868287016100d7565b9150509250925092565b60006101468261014d565b9050919050565b600073ffffffffffffffffffffffffffffffffffffffff82169050919050565b6000819050919050565b6101808161013b565b811461018b57600080fd5b50565b6101978161016d565b81146101a257600080fd5b50565b603f806101b36000396000f3fe6080604052600080fdfea26469706673582212201cfd766794ef83a8231994305a78c342f2c1fb7834b50ca8ecc11f37820c47f964736f6c63430008040033a264697066735822122086a7d042b98adac6cdb0e5ed56065a8c0755acd82705f123c5ded7325bb9ba9964736f6c63430008040033",
  "linkReferences": {},
  "deployedLinkReferences": {}
}