{
  "_format": "hh-sol-artifact-1",
  "contractName": "ServiceAgreement",
  "sourceName": "contracts/ServiceAgreement.sol",
  "abi": [
    {
      "inputs": [
        {
          "internalType": "address",
          "name": "_client",
          "type": "address"
        },
        {
          "internalType": "address",
          "name": "_provider",
          "type": "address"
        },
        {
          "internalType": "uint256",
          "name": "_termsAmount",
          "type": "uint256"
        }
      ],
      "stateMutability": "nonpayable",
      "type": "constructor"
    },
    {
      "anonymous": false,
      "inputs": [
        {
          "indexed": true,
          "internalType": "address",
          "name": "agreementAddress",
          "type": "address"
        },
        {
          "indexed": false,
          "internalType": "enum ServiceAgreement.Rating",
          "name": "clientRating",
          "type": "uint8"
        },
        {
          "indexed": false,
          "internalType": "enum ServiceAgreement.ClientApprovalStatus",
          "name": "clientApprovalStatus",
          "type": "uint8"
        },
        {
          "indexed": false,
          "internalType": "enum ServiceAgreement.WorkStatus",
          "name": "agreementStatus",
          "type": "uint8"
        }
      ],
      "name": "AgreementFulfilled",
      "type": "event"
    },
    {
      "anonymous": false,
      "inputs": [
        {
          "indexed": true,
          "internalType": "address",
          "name": "agreementAddress",
          "type": "address"
        },
        {
          "indexed": false,
          "internalType": "enum ServiceAgreement.WorkStatus",
          "name": "agreementStatus",
          "type": "uint8"
        }
      ],
      "name": "ServiceStatusUpdate",
      "type": "event"
    },
    {
      "inputs": [],
      "name": "agreementStatus",
      "outputs": [
        {
          "internalType": "enum ServiceAgreement.WorkStatus",
          "name": "",
          "type": "uint8"
        }
      ],
      "stateMutability": "view",
      "type": "function"
    },
    {
      "inputs": [],
      "name": "clientApprovalStatus",
      "outputs": [
        {
          "internalType": "enum ServiceAgreement.ClientApprovalStatus",
          "name": "",
          "type": "uint8"
        }
      ],
      "stateMutability": "view",
      "type": "function"
    },
    {
      "inputs": [],
      "name": "clientRating",
      "outputs": [
        {
          "internalType": "enum ServiceAgreement.Rating",
          "name": "",
          "type": "uint8"
        }
      ],
      "stateMutability": "view",
      "type": "function"
    },
    {
      "inputs": [],
      "name": "deposit",
      "outputs": [],
      "stateMutability": "payable",
      "type": "function"
    },
    {
      "inputs": [],
      "name": "getAgreementDetails",
      "outputs": [
        {
          "internalType": "address",
          "name": "",
          "type": "address"
        },
        {
          "internalType": "address",
          "name": "",
          "type": "address"
        },
        {
          "internalType": "uint256",
          "name": "",
          "type": "uint256"
        },
        {
          "internalType": "enum ServiceAgreement.WorkStatus",
          "name": "",
          "type": "uint8"
        },
        {
          "internalType": "enum ServiceAgreement.ClientApprovalStatus",
          "name": "",
          "type": "uint8"
        },
        {
          "internalType": "enum ServiceAgreement.Rating",
          "name": "",
          "type": "uint8"
        },
        {
          "internalType": "bool",
          "name": "",
          "type": "bool"
        },
        {
          "internalType": "uint256",
          "name": "",
          "type": "uint256"
        }
      ],
      "stateMutability": "view",
      "type": "function"
    },
    {
      "inputs": [
        {
          "internalType": "enum ServiceAgreement.Rating",
          "name": "_rating",
          "type": "uint8"
        }
      ],
      "name": "rateServiceProvider",
      "outputs": [],
      "stateMutability": "nonpayable",
      "type": "function"
    },
    {
      "inputs": [],
      "name": "refund",
      "outputs": [],
      "stateMutability": "nonpayable",
      "type": "function"
    },
    {
      "inputs": [],
      "name": "transferFundsToProvider",
      "outputs": [],
      "stateMutability": "nonpayable",
      "type": "function"
    },
    {
      "inputs": [
        {
          "internalType": "enum ServiceAgreement.ClientApprovalStatus",
          "name": "_approve",
          "type": "uint8"
        }
      ],
      "name": "updateClientApprovalStatus",
      "outputs": [],
      "stateMutability": "nonpayable",
      "type": "function"
    },
    {
      "inputs": [
        {
          "internalType": "enum ServiceAgreement.WorkStatus",
          "name": "_status",
          "type": "uint8"
        }
      ],
      "name": "updateServiceStatus",
      "outputs": [],
      "stateMutability": "nonpayable",
      "type": "function"
    }
  ],
  "bytecode": "0x60806040523480156200001157600080fd5b50604051620017cd380380620017cd833981810160405281019062000037919062000211565b826000806101000a81548173ffffffffffffffffffffffffffffffffffffffff021916908373ffffffffffffffffffffffffffffffffffffffff16021790555081600160006101000a81548173ffffffffffffffffffffffffffffffffffffffff021916908373ffffffffffffffffffffffffffffffffffffffff160217905550806002819055506000600360006101000a81548160ff02191690836003811115620000e857620000e76200026d565b5b02179055506000600360016101000a81548160ff021916908360028111156200011657620001156200026d565b5b02179055506000600360026101000a81548160ff021916908360058111156200014457620001436200026d565b5b021790555060006003806101000a81548160ff0219169083151502179055505050506200029c565b600080fd5b600073ffffffffffffffffffffffffffffffffffffffff82169050919050565b60006200019e8262000171565b9050919050565b620001b08162000191565b8114620001bc57600080fd5b50565b600081519050620001d081620001a5565b92915050565b6000819050919050565b620001eb81620001d6565b8114620001f757600080fd5b50565b6000815190506200020b81620001e0565b92915050565b6000806000606084860312156200022d576200022c6200016c565b5b60006200023d86828701620001bf565b93505060206200025086828701620001bf565b92505060406200026386828701620001fa565b9150509250925092565b7f4e487b7100000000000000000000000000000000000000000000000000000000600052602160045260246000fd5b61152180620002ac6000396000f3fe6080604052600436106100915760003560e01c80638a4a69a8116100595780638a4a69a8146101555780638c89e6511461016c578063b4bd778414610195578063c00a8bff146101c7578063d0e30db0146101f257610091565b806310ccb04c1461009657806340359b34146100c157806350796022146100ea578063590e1ae3146101155780636c0d19441461012c575b600080fd5b3480156100a257600080fd5b506100ab6101fc565b6040516100b89190610c4c565b60405180910390f35b3480156100cd57600080fd5b506100e860048036038101906100e39190610c91565b61020f565b005b3480156100f657600080fd5b506100ff610340565b60405161010c9190610d06565b60405180910390f35b34801561012157600080fd5b5061012a610353565b005b34801561013857600080fd5b50610153600480360381019061014e9190610d46565b610513565b005b34801561016157600080fd5b5061016a6105ce565b005b34801561017857600080fd5b50610193600480360381019061018e9190610d98565b6107d4565b005b3480156101a157600080fd5b506101aa6108ee565b6040516101be989796959493929190610e82565b60405180910390f35b3480156101d357600080fd5b506101dc61099a565b6040516101e99190610f00565b60405180910390f35b6101fa6109ad565b005b600360009054906101000a900460ff1681565b60008054906101000a900473ffffffffffffffffffffffffffffffffffffffff1673ffffffffffffffffffffffffffffffffffffffff163373ffffffffffffffffffffffffffffffffffffffff161461029d576040517f08c379a000000000000000000000000000000000000000000000000000000000815260040161029490610f78565b60405180910390fd5b600260038111156102b1576102b0610bd5565b5b600360009054906101000a900460ff1660038111156102d3576102d2610bd5565b5b14610313576040517f08c379a000000000000000000000000000000000000000000000000000000000815260040161030a9061100a565b60405180910390fd5b80600360016101000a81548160ff0219169083600281111561033857610337610bd5565b5b021790555050565b600360019054906101000a900460ff1681565b60008054906101000a900473ffffffffffffffffffffffffffffffffffffffff1673ffffffffffffffffffffffffffffffffffffffff163373ffffffffffffffffffffffffffffffffffffffff16146103e1576040517f08c379a00000000000000000000000000000000000000000000000000000000081526004016103d890610f78565b60405180910390fd5b60038054906101000a900460ff161561042f576040517f08c379a00000000000000000000000000000000000000000000000000000000081526004016104269061109c565b60405180910390fd5b60038081111561044257610441610bd5565b5b600360009054906101000a900460ff16600381111561046457610463610bd5565b5b146104a4576040517f08c379a000000000000000000000000000000000000000000000000000000000815260040161049b9061112e565b60405180910390fd5b600047116104e7576040517f08c379a00000000000000000000000000000000000000000000000000000000081526004016104de9061119a565b60405180910390fd5b61051160008054906101000a900473ffffffffffffffffffffffffffffffffffffffff1647610a8b565b565b60008054906101000a900473ffffffffffffffffffffffffffffffffffffffff1673ffffffffffffffffffffffffffffffffffffffff163373ffffffffffffffffffffffffffffffffffffffff16146105a1576040517f08c379a000000000000000000000000000000000000000000000000000000000815260040161059890610f78565b60405180910390fd5b80600360026101000a81548160ff021916908360058111156105c6576105c5610bd5565b5b021790555050565b600160009054906101000a900473ffffffffffffffffffffffffffffffffffffffff1673ffffffffffffffffffffffffffffffffffffffff163373ffffffffffffffffffffffffffffffffffffffff161461065e576040517f08c379a00000000000000000000000000000000000000000000000000000000081526004016106559061122c565b60405180910390fd5b60038054906101000a900460ff16156106ac576040517f08c379a00000000000000000000000000000000000000000000000000000000081526004016106a39061109c565b60405180910390fd5b6002544710156106f1576040517f08c379a00000000000000000000000000000000000000000000000000000000081526004016106e8906112be565b60405180910390fd5b6002600381111561070557610704610bd5565b5b600360009054906101000a900460ff16600381111561072757610726610bd5565b5b14801561076757506001600281111561074357610742610bd5565b5b600360019054906101000a900460ff16600281111561076557610764610bd5565b5b145b6107a6576040517f08c379a000000000000000000000000000000000000000000000000000000000815260040161079d90611350565b60405180910390fd5b6107d2600160009054906101000a900473ffffffffffffffffffffffffffffffffffffffff1647610a8b565b565b600160009054906101000a900473ffffffffffffffffffffffffffffffffffffffff1673ffffffffffffffffffffffffffffffffffffffff163373ffffffffffffffffffffffffffffffffffffffff1614610864576040517f08c379a000000000000000000000000000000000000000000000000000000000815260040161085b9061122c565b60405180910390fd5b80600360006101000a81548160ff0219169083600381111561088957610888610bd5565b5b02179055503073ffffffffffffffffffffffffffffffffffffffff167f42e61e3c4e439fdecc3d22a276d1291d711d1d2f97418fcf47e4b08222e28cc4600360009054906101000a900460ff166040516108e39190610c4c565b60405180910390a250565b60008060008060008060008060008054906101000a900473ffffffffffffffffffffffffffffffffffffffff16600160009054906101000a900473ffffffffffffffffffffffffffffffffffffffff1647600360009054906101000a900460ff16600360019054906101000a900460ff16600360029054906101000a900460ff1660038054906101000a900460ff16600254975097509750975097509750975097509091929394959697565b600360029054906101000a900460ff1681565b60008054906101000a900473ffffffffffffffffffffffffffffffffffffffff1673ffffffffffffffffffffffffffffffffffffffff163373ffffffffffffffffffffffffffffffffffffffff1614610a3b576040517f08c379a0000000000000000000000000000000000000000000000000000000008152600401610a3290610f78565b60405180910390fd5b60038054906101000a900460ff1615610a89576040517f08c379a0000000000000000000000000000000000000000000000000000000008152600401610a80906113e2565b60405180910390fd5b565b60016003806101000a81548160ff0219169083151502179055503073ffffffffffffffffffffffffffffffffffffffff167fe4cba55b7670d81288cb513047c736b2465ad19fc9806a75a88ecb6e383e6022600360029054906101000a900460ff16600360019054906101000a900460ff16600360009054906101000a900460ff16604051610b1c93929190611402565b60405180910390a260008273ffffffffffffffffffffffffffffffffffffffff1682604051610b4a9061146a565b60006040518083038185875af1925050503d8060008114610b87576040519150601f19603f3d011682016040523d82523d6000602084013e610b8c565b606091505b5050905080610bd0576040517f08c379a0000000000000000000000000000000000000000000000000000000008152600401610bc7906114cb565b60405180910390fd5b505050565b7f4e487b7100000000000000000000000000000000000000000000000000000000600052602160045260246000fd5b60048110610c1557610c14610bd5565b5b50565b6000819050610c2682610c04565b919050565b6000610c3682610c18565b9050919050565b610c4681610c2b565b82525050565b6000602082019050610c616000830184610c3d565b92915050565b600080fd5b60038110610c7957600080fd5b50565b600081359050610c8b81610c6c565b92915050565b600060208284031215610ca757610ca6610c67565b5b6000610cb584828501610c7c565b91505092915050565b60038110610ccf57610cce610bd5565b5b50565b6000819050610ce082610cbe565b919050565b6000610cf082610cd2565b9050919050565b610d0081610ce5565b82525050565b6000602082019050610d1b6000830184610cf7565b92915050565b60068110610d2e57600080fd5b50565b600081359050610d4081610d21565b92915050565b600060208284031215610d5c57610d5b610c67565b5b6000610d6a84828501610d31565b91505092915050565b60048110610d8057600080fd5b50565b600081359050610d9281610d73565b92915050565b600060208284031215610dae57610dad610c67565b5b6000610dbc84828501610d83565b91505092915050565b600073ffffffffffffffffffffffffffffffffffffffff82169050919050565b6000610df082610dc5565b9050919050565b610e0081610de5565b82525050565b6000819050919050565b610e1981610e06565b82525050565b60068110610e3057610e2f610bd5565b5b50565b6000819050610e4182610e1f565b919050565b6000610e5182610e33565b9050919050565b610e6181610e46565b82525050565b60008115159050919050565b610e7c81610e67565b82525050565b600061010082019050610e98600083018b610df7565b610ea5602083018a610df7565b610eb26040830189610e10565b610ebf6060830188610c3d565b610ecc6080830187610cf7565b610ed960a0830186610e58565b610ee660c0830185610e73565b610ef360e0830184610e10565b9998505050505050505050565b6000602082019050610f156000830184610e58565b92915050565b600082825260208201905092915050565b7f4f6e6c792074686520636c69656e742063616e2063616c6c20746869732e0000600082015250565b6000610f62601e83610f1b565b9150610f6d82610f2c565b602082019050919050565b60006020820190508181036000830152610f9181610f55565b9050919050565b7f54686520636f6e7472616374206d757374206265206d61726b6564206173206360008201527f6f6d706c657465642062792074686520736572766963652070726f7669646572602082015250565b6000610ff4604083610f1b565b9150610fff82610f98565b604082019050919050565b6000602082019050818103600083015261102381610fe7565b9050919050565b7f546869732061677265656d656e742068617320616c7265616479206265656e2060008201527f66756c66696c6c6564206f72206e756c6c696669656400000000000000000000602082015250565b6000611086603683610f1b565b91506110918261102a565b604082019050919050565b600060208201905081810360008301526110b581611079565b9050919050565b7f5468652061677265656d656e7420686173206e6f74206265656e206d61726b6560008201527f642061732057696c6c204e6f7420436f6d706c65746500000000000000000000602082015250565b6000611118603683610f1b565b9150611123826110bc565b604082019050919050565b600060208201905081810360008301526111478161110b565b9050919050565b7f546865726520617265206e6f2066756e647320746f20726566756e6400000000600082015250565b6000611184601c83610f1b565b915061118f8261114e565b602082019050919050565b600060208201905081810360008301526111b381611177565b9050919050565b7f4f6e6c792074686520736572766963652070726f76696465722063616e20636160008201527f6c6c20746869732e000000000000000000000000000000000000000000000000602082015250565b6000611216602883610f1b565b9150611221826111ba565b604082019050919050565b6000602082019050818103600083015261124581611209565b9050919050565b7f436f6e74726163742062616c616e636520726571756972656d656e742068617360008201527f206e6f74206265656e206d657400000000000000000000000000000000000000602082015250565b60006112a8602d83610f1b565b91506112b38261124c565b604082019050919050565b600060208201905081810360008301526112d78161129b565b9050919050565b7f5365727669636520776173206e6f7420636f6d706c65746564206f722061707060008201527f726f766564000000000000000000000000000000000000000000000000000000602082015250565b600061133a602583610f1b565b9150611345826112de565b604082019050919050565b600060208201905081810360008301526113698161132d565b9050919050565b7f41677265656d656e742068617320616c7265616479206265656e2066756c666960008201527f6c6c656400000000000000000000000000000000000000000000000000000000602082015250565b60006113cc602483610f1b565b91506113d782611370565b604082019050919050565b600060208201905081810360008301526113fb816113bf565b9050919050565b60006060820190506114176000830186610e58565b6114246020830185610cf7565b6114316040830184610c3d565b949350505050565b600081905092915050565b50565b6000611454600083611439565b915061145f82611444565b600082019050919050565b600061147582611447565b9150819050919050565b7f5472616e7366657220756e7375636365737366756c0000000000000000000000600082015250565b60006114b5601583610f1b565b91506114c08261147f565b602082019050919050565b600060208201905081810360008301526114e4816114a8565b905091905056fea264697066735822122021dccaf84ddf68f35a69564cec64f75efdcd4f6bc408d06445cc62b2db1109d364736f6c63430008180033",
  "linkReferences": {},
  "deployedLinkReferences": {}
}